{
  "contractName": "IAM",
  "abi": [
    {
      "anonymous": false,
      "inputs": [
        {
          "indexed": true,
          "internalType": "address",
          "name": "_client_owner",
          "type": "address"
        },
        {
          "indexed": false,
          "internalType": "string",
          "name": "_client_id",
          "type": "string"
        },
        {
          "indexed": false,
          "internalType": "uint256",
          "name": "_create_date",
          "type": "uint256"
        }
      ],
      "name": "AddClient",
      "type": "event"
    },
    {
      "anonymous": false,
      "inputs": [
        {
          "indexed": true,
          "internalType": "address",
          "name": "_client_owner",
          "type": "address"
        },
        {
          "indexed": true,
          "internalType": "string",
          "name": "_client_id",
          "type": "string"
        },
        {
          "indexed": false,
          "internalType": "uint256",
          "name": "_event_at",
          "type": "uint256"
        }
      ],
      "name": "ClientRevoke",
      "type": "event"
    },
    {
      "anonymous": false,
      "inputs": [
        {
          "indexed": true,
          "internalType": "address",
          "name": "_client_user",
          "type": "address"
        },
        {
          "indexed": false,
          "internalType": "string",
          "name": "_client_id",
          "type": "string"
        },
        {
          "indexed": false,
          "internalType": "string",
          "name": "_authorization_id",
          "type": "string"
        },
        {
          "indexed": false,
          "internalType": "string",
          "name": "_access_token_id",
          "type": "string"
        },
        {
          "indexed": false,
          "internalType": "uint256",
          "name": "expires_at",
          "type": "uint256"
        },
        {
          "indexed": false,
          "internalType": "uint256",
          "name": "_create_date",
          "type": "uint256"
        }
      ],
      "name": "CreateAccessToken",
      "type": "event"
    },
    {
      "anonymous": false,
      "inputs": [
        {
          "indexed": true,
          "internalType": "address",
          "name": "_client_owner",
          "type": "address"
        },
        {
          "indexed": false,
          "internalType": "string",
          "name": "_client_id",
          "type": "string"
        },
        {
          "indexed": false,
          "internalType": "uint256",
          "name": "_del_date",
          "type": "uint256"
        }
      ],
      "name": "DelClient",
      "type": "event"
    },
    {
      "anonymous": false,
      "inputs": [
        {
          "indexed": true,
          "internalType": "address",
          "name": "_client_owner",
          "type": "address"
        },
        {
          "indexed": false,
          "internalType": "string",
          "name": "_client_id",
          "type": "string"
        },
        {
          "indexed": false,
          "internalType": "uint256",
          "name": "_update_date",
          "type": "uint256"
        }
      ],
      "name": "EditClient",
      "type": "event"
    },
    {
      "anonymous": false,
      "inputs": [
        {
          "indexed": true,
          "internalType": "address",
          "name": "_client_user",
          "type": "address"
        },
        {
          "indexed": false,
          "internalType": "string",
          "name": "_client_id",
          "type": "string"
        },
        {
          "indexed": false,
          "internalType": "string",
          "name": "_authorize_id",
          "type": "string"
        },
        {
          "indexed": false,
          "internalType": "uint256",
          "name": "expires_at",
          "type": "uint256"
        },
        {
          "indexed": false,
          "internalType": "uint256",
          "name": "_create_date",
          "type": "uint256"
        }
      ],
      "name": "GrantAuthorize",
      "type": "event"
    },
    {
      "anonymous": false,
      "inputs": [
        {
          "indexed": true,
          "internalType": "address",
          "name": "_client_owner",
          "type": "address"
        },
        {
          "indexed": false,
          "internalType": "string",
          "name": "_client_id",
          "type": "string"
        },
        {
          "indexed": false,
          "internalType": "uint256",
          "name": "_event_at",
          "type": "uint256"
        }
      ],
      "name": "RenewClientSecret",
      "type": "event"
    },
    {
      "anonymous": false,
      "inputs": [
        {
          "indexed": true,
          "internalType": "address",
          "name": "_client_user",
          "type": "address"
        },
        {
          "indexed": false,
          "internalType": "string",
          "name": "_client_id",
          "type": "string"
        },
        {
          "indexed": false,
          "internalType": "uint256",
          "name": "_event_at",
          "type": "uint256"
        }
      ],
      "name": "UserClientRevoke",
      "type": "event"
    },
    {
      "inputs": [
        {
          "internalType": "string",
          "name": "_client_id",
          "type": "string"
        },
        {
          "internalType": "string",
          "name": "_client_secret",
          "type": "string"
        },
        {
          "internalType": "string",
          "name": "_client_name",
          "type": "string"
        },
        {
          "internalType": "string",
          "name": "_client_logo",
          "type": "string"
        },
        {
          "internalType": "string",
          "name": "_client_description",
          "type": "string"
        },
        {
          "internalType": "string",
          "name": "_client_homepage",
          "type": "string"
        },
        {
          "internalType": "string",
          "name": "_redirect_uri",
          "type": "string"
        }
      ],
      "name": "createClient",
      "outputs": [],
      "stateMutability": "nonpayable",
      "type": "function"
    },
    {
      "inputs": [
        {
          "internalType": "string",
          "name": "_client_id",
          "type": "string"
        }
      ],
      "name": "deleteClient",
      "outputs": [],
      "stateMutability": "nonpayable",
      "type": "function"
    },
    {
      "inputs": [
        {
          "internalType": "string",
          "name": "_client_id",
          "type": "string"
        },
        {
          "internalType": "string",
          "name": "_client_name",
          "type": "string"
        },
        {
          "internalType": "string",
          "name": "_client_description",
          "type": "string"
        },
        {
          "internalType": "string",
          "name": "_client_homepage",
          "type": "string"
        },
        {
          "internalType": "string",
          "name": "_redirect_uri",
          "type": "string"
        }
      ],
      "name": "editClient",
      "outputs": [],
      "stateMutability": "nonpayable",
      "type": "function"
    },
    {
      "inputs": [
        {
          "internalType": "string",
          "name": "_client_id",
          "type": "string"
        },
        {
          "internalType": "string",
          "name": "_client_secret",
          "type": "string"
        }
      ],
      "name": "renewClientSecret",
      "outputs": [],
      "stateMutability": "nonpayable",
      "type": "function"
    },
    {
      "inputs": [
        {
          "internalType": "string",
          "name": "_client_id",
          "type": "string"
        }
      ],
      "name": "getClientByOwner",
      "outputs": [
        {
          "components": [
            {
              "internalType": "string",
              "name": "client_id",
              "type": "string"
            },
            {
              "internalType": "string",
              "name": "client_secret",
              "type": "string"
            },
            {
              "internalType": "string",
              "name": "client_name",
              "type": "string"
            },
            {
              "internalType": "string",
              "name": "client_logo",
              "type": "string"
            },
            {
              "internalType": "string",
              "name": "client_description",
              "type": "string"
            },
            {
              "internalType": "string",
              "name": "client_homepage",
              "type": "string"
            },
            {
              "internalType": "string",
              "name": "redirect_uri",
              "type": "string"
            },
            {
              "internalType": "address",
              "name": "client_owner",
              "type": "address"
            },
            {
              "internalType": "uint256",
              "name": "update_date",
              "type": "uint256"
            },
            {
              "internalType": "uint256",
              "name": "create_date",
              "type": "uint256"
            }
          ],
          "internalType": "struct IAM.Clients",
          "name": "",
          "type": "tuple"
        }
      ],
      "stateMutability": "view",
      "type": "function",
      "constant": true
    },
    {
      "inputs": [
        {
          "internalType": "string",
          "name": "_client_id",
          "type": "string"
        }
      ],
      "name": "getClientPublicJson",
      "outputs": [
        {
          "internalType": "string",
          "name": "",
          "type": "string"
        }
      ],
      "stateMutability": "view",
      "type": "function",
      "constant": true
    },
    {
      "inputs": [
        {
          "internalType": "uint256",
          "name": "_expires_at",
          "type": "uint256"
        }
      ],
      "name": "isExpire",
      "outputs": [
        {
          "internalType": "bool",
          "name": "",
          "type": "bool"
        }
      ],
      "stateMutability": "view",
      "type": "function",
      "constant": true
    },
    {
      "inputs": [
        {
          "internalType": "string",
          "name": "_client_id",
          "type": "string"
        },
        {
          "internalType": "string",
          "name": "_authorization_id",
          "type": "string"
        },
        {
          "internalType": "string",
          "name": "_authorization_code",
          "type": "string"
        },
        {
          "internalType": "string[]",
          "name": "_scopes",
          "type": "string[]"
        },
        {
          "internalType": "string",
          "name": "_redirect_uri",
          "type": "string"
        },
        {
          "internalType": "uint256",
          "name": "_expiration_period",
          "type": "uint256"
        }
      ],
      "name": "createAuthorize",
      "outputs": [],
      "stateMutability": "nonpayable",
      "type": "function"
    },
    {
      "inputs": [
        {
          "internalType": "string",
          "name": "_client_id",
          "type": "string"
        },
        {
          "internalType": "string",
          "name": "_authorization_id",
          "type": "string"
        },
        {
          "internalType": "string",
          "name": "_access_token_id",
          "type": "string"
        },
        {
          "internalType": "string",
          "name": "_access_token",
          "type": "string"
        },
        {
          "internalType": "string[]",
          "name": "_scopes",
          "type": "string[]"
        },
        {
          "internalType": "uint256",
          "name": "_expiration_period",
          "type": "uint256"
        }
      ],
      "name": "createAccessToken",
      "outputs": [],
      "stateMutability": "nonpayable",
      "type": "function"
    },
    {
      "inputs": [
        {
          "internalType": "string",
          "name": "_authorization_id",
          "type": "string"
        }
      ],
      "name": "getGrantAuthorize",
      "outputs": [
        {
          "components": [
            {
              "internalType": "string",
              "name": "authorization_id",
              "type": "string"
            },
            {
              "internalType": "string",
              "name": "authorization_code",
              "type": "string"
            },
            {
              "components": [
                {
                  "internalType": "string",
                  "name": "client_id",
                  "type": "string"
                },
                {
                  "internalType": "string",
                  "name": "client_secret",
                  "type": "string"
                },
                {
                  "internalType": "string",
                  "name": "client_name",
                  "type": "string"
                },
                {
                  "internalType": "string",
                  "name": "client_logo",
                  "type": "string"
                },
                {
                  "internalType": "string",
                  "name": "client_description",
                  "type": "string"
                },
                {
                  "internalType": "string",
                  "name": "client_homepage",
                  "type": "string"
                },
                {
                  "internalType": "string",
                  "name": "redirect_uri",
                  "type": "string"
                },
                {
                  "internalType": "address",
                  "name": "client_owner",
                  "type": "address"
                },
                {
                  "internalType": "uint256",
                  "name": "update_date",
                  "type": "uint256"
                },
                {
                  "internalType": "uint256",
                  "name": "create_date",
                  "type": "uint256"
                }
              ],
              "internalType": "struct IAM.Clients",
              "name": "client",
              "type": "tuple"
            },
            {
              "internalType": "string[]",
              "name": "scopes",
              "type": "string[]"
            },
            {
              "internalType": "string",
              "name": "redirect_uri",
              "type": "string"
            },
            {
              "internalType": "address",
              "name": "client_user",
              "type": "address"
            },
            {
              "internalType": "bool",
              "name": "is_active",
              "type": "bool"
            },
            {
              "internalType": "uint256",
              "name": "expires_at",
              "type": "uint256"
            },
            {
              "internalType": "uint256",
              "name": "create_date",
              "type": "uint256"
            }
          ],
          "internalType": "struct IAM.Authorizations",
          "name": "",
          "type": "tuple"
        }
      ],
      "stateMutability": "view",
      "type": "function",
      "constant": true
    }
  ],
  "bytecode": "0x608060405234801561001057600080fd5b506158ee80620000216000396000f3fe608060405234801561001057600080fd5b506004361061009e5760003560e01c8063ba920db811610066578063ba920db814610157578063d597757814610173578063da882fbb1461018f578063e1177886146101bf578063ea2cd0dd146101ef5761009e565b8063184183db146100a357806353545034146100bf57806368239cd5146100db57806397df7ef81461010b5780639aa79f3014610127575b600080fd5b6100bd60048036038101906100b89190613e60565b61020b565b005b6100d960048036038101906100d49190613fc5565b610464565b005b6100f560048036038101906100f09190613e60565b610c4c565b6040516101029190614478565b60405180910390f35b6101256004803603810190610120919061449a565b61145e565b005b610141600480360381019061013c9190613e60565b612625565b60405161014e91906146b7565b60405180910390f35b610171600480360381019061016c91906146d9565b612c04565b005b61018d6004803603810190610188919061483f565b612e4b565b005b6101a960048036038101906101a49190613e60565b613039565b6040516101b69190614901565b60405180910390f35b6101d960048036038101906101d49190614923565b61331a565b6040516101e6919061495f565b60405180910390f35b6102096004803603810190610204919061497a565b613337565b005b803373ffffffffffffffffffffffffffffffffffffffff166000826040516102339190614abd565b908152602001604051809103902060070160009054906101000a900473ffffffffffffffffffffffffffffffffffffffff1673ffffffffffffffffffffffffffffffffffffffff16146102bb576040517f08c379a00000000000000000000000000000000000000000000000000000000081526004016102b290614b46565b60405180910390fd5b600082511415610300576040517f08c379a00000000000000000000000000000000000000000000000000000000081526004016102f790614bb2565b60405180910390fd5b610309826135ca565b610348576040517f08c379a000000000000000000000000000000000000000000000000000000000815260040161033f90614c1e565b60405180910390fd5b6000826040516103589190614abd565b9081526020016040518091039020600080820160006103779190613acc565b6001820160006103879190613acc565b6002820160006103979190613acc565b6003820160006103a79190613acc565b6004820160006103b79190613acc565b6005820160006103c79190613acc565b6006820160006103d79190613acc565b6007820160006101000a81549073ffffffffffffffffffffffffffffffffffffffff02191690556008820160009055600982016000905550503373ffffffffffffffffffffffffffffffffffffffff167fedf3f52411368a1d968a3c58bc98777991f36a53f8f94d17bebd279dee2509288342604051610458929190614c4d565b60405180910390a25050565b61046d866135ca565b6104ac576040517f08c379a00000000000000000000000000000000000000000000000000000000081526004016104a390614c1e565b60405180910390fd5b6040518061012001604052808681526020018581526020016000886040516104d49190614abd565b9081526020016040518091039020604051806101400160405290816000820180546104fe90614cac565b80601f016020809104026020016040519081016040528092919081815260200182805461052a90614cac565b80156105775780601f1061054c57610100808354040283529160200191610577565b820191906000526020600020905b81548152906001019060200180831161055a57829003601f168201915b5050505050815260200160018201805461059090614cac565b80601f01602080910402602001604051908101604052809291908181526020018280546105bc90614cac565b80156106095780601f106105de57610100808354040283529160200191610609565b820191906000526020600020905b8154815290600101906020018083116105ec57829003601f168201915b5050505050815260200160028201805461062290614cac565b80601f016020809104026020016040519081016040528092919081815260200182805461064e90614cac565b801561069b5780601f106106705761010080835404028352916020019161069b565b820191906000526020600020905b81548152906001019060200180831161067e57829003601f168201915b505050505081526020016003820180546106b490614cac565b80601f01602080910402602001604051908101604052809291908181526020018280546106e090614cac565b801561072d5780601f106107025761010080835404028352916020019161072d565b820191906000526020600020905b81548152906001019060200180831161071057829003601f168201915b5050505050815260200160048201805461074690614cac565b80601f016020809104026020016040519081016040528092919081815260200182805461077290614cac565b80156107bf5780601f10610794576101008083540402835291602001916107bf565b820191906000526020600020905b8154815290600101906020018083116107a257829003601f168201915b505050505081526020016005820180546107d890614cac565b80601f016020809104026020016040519081016040528092919081815260200182805461080490614cac565b80156108515780601f1061082657610100808354040283529160200191610851565b820191906000526020600020905b81548152906001019060200180831161083457829003601f168201915b5050505050815260200160068201805461086a90614cac565b80601f016020809104026020016040519081016040528092919081815260200182805461089690614cac565b80156108e35780601f106108b8576101008083540402835291602001916108e3565b820191906000526020600020905b8154815290600101906020018083116108c657829003601f168201915b505050505081526020016007820160009054906101000a900473ffffffffffffffffffffffffffffffffffffffff1673ffffffffffffffffffffffffffffffffffffffff1673ffffffffffffffffffffffffffffffffffffffff1681526020016008820154815260200160098201548152505081526020018481526020018381526020013373ffffffffffffffffffffffffffffffffffffffff16815260200160011515815260200182426109989190614d0d565b8152602001428152506001866040516109b19190614abd565b908152602001604051809103902060008201518160000190805190602001906109db929190613b0c565b5060208201518160010190805190602001906109f8929190613b0c565b506040820151816002016000820151816000019080519060200190610a1e929190613b0c565b506020820151816001019080519060200190610a3b929190613b0c565b506040820151816002019080519060200190610a58929190613b0c565b506060820151816003019080519060200190610a75929190613b0c565b506080820151816004019080519060200190610a92929190613b0c565b5060a0820151816005019080519060200190610aaf929190613b0c565b5060c0820151816006019080519060200190610acc929190613b0c565b5060e08201518160070160006101000a81548173ffffffffffffffffffffffffffffffffffffffff021916908373ffffffffffffffffffffffffffffffffffffffff160217905550610100820151816008015561012082015181600901555050606082015181600c019080519060200190610b48929190613b92565b50608082015181600d019080519060200190610b65929190613b0c565b5060a082015181600e0160006101000a81548173ffffffffffffffffffffffffffffffffffffffff021916908373ffffffffffffffffffffffffffffffffffffffff16021790555060c082015181600e0160146101000a81548160ff02191690831515021790555060e082015181600f015561010082015181601001559050503373ffffffffffffffffffffffffffffffffffffffff167f203f02a1aa498d83f59d445d600435bc34a2208f6510978c21a523b5dcb6061f87878442610c2b9190614d0d565b42604051610c3c9493929190614d63565b60405180910390a2505050505050565b610c54613bf2565b610c5d82613694565b610c9c576040517f08c379a0000000000000000000000000000000000000000000000000000000008152600401610c9390614e02565b60405180910390fd5b600182604051610cac9190614abd565b908152602001604051809103902060405180610120016040529081600082018054610cd690614cac565b80601f0160208091040260200160405190810160405280929190818152602001828054610d0290614cac565b8015610d4f5780601f10610d2457610100808354040283529160200191610d4f565b820191906000526020600020905b815481529060010190602001808311610d3257829003601f168201915b50505050508152602001600182018054610d6890614cac565b80601f0160208091040260200160405190810160405280929190818152602001828054610d9490614cac565b8015610de15780601f10610db657610100808354040283529160200191610de1565b820191906000526020600020905b815481529060010190602001808311610dc457829003601f168201915b505050505081526020016002820160405180610140016040529081600082018054610e0b90614cac565b80601f0160208091040260200160405190810160405280929190818152602001828054610e3790614cac565b8015610e845780601f10610e5957610100808354040283529160200191610e84565b820191906000526020600020905b815481529060010190602001808311610e6757829003601f168201915b50505050508152602001600182018054610e9d90614cac565b80601f0160208091040260200160405190810160405280929190818152602001828054610ec990614cac565b8015610f165780601f10610eeb57610100808354040283529160200191610f16565b820191906000526020600020905b815481529060010190602001808311610ef957829003601f168201915b50505050508152602001600282018054610f2f90614cac565b80601f0160208091040260200160405190810160405280929190818152602001828054610f5b90614cac565b8015610fa85780601f10610f7d57610100808354040283529160200191610fa8565b820191906000526020600020905b815481529060010190602001808311610f8b57829003601f168201915b50505050508152602001600382018054610fc190614cac565b80601f0160208091040260200160405190810160405280929190818152602001828054610fed90614cac565b801561103a5780601f1061100f5761010080835404028352916020019161103a565b820191906000526020600020905b81548152906001019060200180831161101d57829003601f168201915b5050505050815260200160048201805461105390614cac565b80601f016020809104026020016040519081016040528092919081815260200182805461107f90614cac565b80156110cc5780601f106110a1576101008083540402835291602001916110cc565b820191906000526020600020905b8154815290600101906020018083116110af57829003601f168201915b505050505081526020016005820180546110e590614cac565b80601f016020809104026020016040519081016040528092919081815260200182805461111190614cac565b801561115e5780601f106111335761010080835404028352916020019161115e565b820191906000526020600020905b81548152906001019060200180831161114157829003601f168201915b5050505050815260200160068201805461117790614cac565b80601f01602080910402602001604051908101604052809291908181526020018280546111a390614cac565b80156111f05780601f106111c5576101008083540402835291602001916111f0565b820191906000526020600020905b8154815290600101906020018083116111d357829003601f168201915b505050505081526020016007820160009054906101000a900473ffffffffffffffffffffffffffffffffffffffff1673ffffffffffffffffffffffffffffffffffffffff1673ffffffffffffffffffffffffffffffffffffffff168152602001600882015481526020016009820154815250508152602001600c8201805480602002602001604051908101604052809291908181526020016000905b828210156113385783829060005260206000200180546112ab90614cac565b80601f01602080910402602001604051908101604052809291908181526020018280546112d790614cac565b80156113245780601f106112f957610100808354040283529160200191611324565b820191906000526020600020905b81548152906001019060200180831161130757829003601f168201915b50505050508152602001906001019061128c565b505050508152602001600d8201805461135090614cac565b80601f016020809104026020016040519081016040528092919081815260200182805461137c90614cac565b80156113c95780601f1061139e576101008083540402835291602001916113c9565b820191906000526020600020905b8154815290600101906020018083116113ac57829003601f168201915b50505050508152602001600e820160009054906101000a900473ffffffffffffffffffffffffffffffffffffffff1673ffffffffffffffffffffffffffffffffffffffff1673ffffffffffffffffffffffffffffffffffffffff168152602001600e820160149054906101000a900460ff16151515158152602001600f82015481526020016010820154815250509050919050565b611467866135ca565b6114a6576040517f08c379a000000000000000000000000000000000000000000000000000000000815260040161149d90614c1e565b60405180910390fd5b6114af85613694565b6114b857600080fd5b6040518061012001604052808581526020016001876040516114da9190614abd565b90815260200160405180910390206040518061012001604052908160008201805461150490614cac565b80601f016020809104026020016040519081016040528092919081815260200182805461153090614cac565b801561157d5780601f106115525761010080835404028352916020019161157d565b820191906000526020600020905b81548152906001019060200180831161156057829003601f168201915b5050505050815260200160018201805461159690614cac565b80601f01602080910402602001604051908101604052809291908181526020018280546115c290614cac565b801561160f5780601f106115e45761010080835404028352916020019161160f565b820191906000526020600020905b8154815290600101906020018083116115f257829003601f168201915b50505050508152602001600282016040518061014001604052908160008201805461163990614cac565b80601f016020809104026020016040519081016040528092919081815260200182805461166590614cac565b80156116b25780601f10611687576101008083540402835291602001916116b2565b820191906000526020600020905b81548152906001019060200180831161169557829003601f168201915b505050505081526020016001820180546116cb90614cac565b80601f01602080910402602001604051908101604052809291908181526020018280546116f790614cac565b80156117445780601f1061171957610100808354040283529160200191611744565b820191906000526020600020905b81548152906001019060200180831161172757829003601f168201915b5050505050815260200160028201805461175d90614cac565b80601f016020809104026020016040519081016040528092919081815260200182805461178990614cac565b80156117d65780601f106117ab576101008083540402835291602001916117d6565b820191906000526020600020905b8154815290600101906020018083116117b957829003601f168201915b505050505081526020016003820180546117ef90614cac565b80601f016020809104026020016040519081016040528092919081815260200182805461181b90614cac565b80156118685780601f1061183d57610100808354040283529160200191611868565b820191906000526020600020905b81548152906001019060200180831161184b57829003601f168201915b5050505050815260200160048201805461188190614cac565b80601f01602080910402602001604051908101604052809291908181526020018280546118ad90614cac565b80156118fa5780601f106118cf576101008083540402835291602001916118fa565b820191906000526020600020905b8154815290600101906020018083116118dd57829003601f168201915b5050505050815260200160058201805461191390614cac565b80601f016020809104026020016040519081016040528092919081815260200182805461193f90614cac565b801561198c5780601f106119615761010080835404028352916020019161198c565b820191906000526020600020905b81548152906001019060200180831161196f57829003601f168201915b505050505081526020016006820180546119a590614cac565b80601f01602080910402602001604051908101604052809291908181526020018280546119d190614cac565b8015611a1e5780601f106119f357610100808354040283529160200191611a1e565b820191906000526020600020905b815481529060010190602001808311611a0157829003601f168201915b505050505081526020016007820160009054906101000a900473ffffffffffffffffffffffffffffffffffffffff1673ffffffffffffffffffffffffffffffffffffffff1673ffffffffffffffffffffffffffffffffffffffff168152602001600882015481526020016009820154815250508152602001600c8201805480602002602001604051908101604052809291908181526020016000905b82821015611b66578382906000526020600020018054611ad990614cac565b80601f0160208091040260200160405190810160405280929190818152602001828054611b0590614cac565b8015611b525780601f10611b2757610100808354040283529160200191611b52565b820191906000526020600020905b815481529060010190602001808311611b3557829003601f168201915b505050505081526020019060010190611aba565b505050508152602001600d82018054611b7e90614cac565b80601f0160208091040260200160405190810160405280929190818152602001828054611baa90614cac565b8015611bf75780601f10611bcc57610100808354040283529160200191611bf7565b820191906000526020600020905b815481529060010190602001808311611bda57829003601f168201915b50505050508152602001600e820160009054906101000a900473ffffffffffffffffffffffffffffffffffffffff1673ffffffffffffffffffffffffffffffffffffffff1673ffffffffffffffffffffffffffffffffffffffff168152602001600e820160149054906101000a900460ff16151515158152602001600f820154815260200160108201548152505081526020018481526020018242611c9c9190614d0d565b8152602001838152602001600088604051611cb79190614abd565b908152602001604051809103902060405180610140016040529081600082018054611ce190614cac565b80601f0160208091040260200160405190810160405280929190818152602001828054611d0d90614cac565b8015611d5a5780601f10611d2f57610100808354040283529160200191611d5a565b820191906000526020600020905b815481529060010190602001808311611d3d57829003601f168201915b50505050508152602001600182018054611d7390614cac565b80601f0160208091040260200160405190810160405280929190818152602001828054611d9f90614cac565b8015611dec5780601f10611dc157610100808354040283529160200191611dec565b820191906000526020600020905b815481529060010190602001808311611dcf57829003601f168201915b50505050508152602001600282018054611e0590614cac565b80601f0160208091040260200160405190810160405280929190818152602001828054611e3190614cac565b8015611e7e5780601f10611e5357610100808354040283529160200191611e7e565b820191906000526020600020905b815481529060010190602001808311611e6157829003601f168201915b50505050508152602001600382018054611e9790614cac565b80601f0160208091040260200160405190810160405280929190818152602001828054611ec390614cac565b8015611f105780601f10611ee557610100808354040283529160200191611f10565b820191906000526020600020905b815481529060010190602001808311611ef357829003601f168201915b50505050508152602001600482018054611f2990614cac565b80601f0160208091040260200160405190810160405280929190818152602001828054611f5590614cac565b8015611fa25780601f10611f7757610100808354040283529160200191611fa2565b820191906000526020600020905b815481529060010190602001808311611f8557829003601f168201915b50505050508152602001600582018054611fbb90614cac565b80601f0160208091040260200160405190810160405280929190818152602001828054611fe790614cac565b80156120345780601f1061200957610100808354040283529160200191612034565b820191906000526020600020905b81548152906001019060200180831161201757829003601f168201915b5050505050815260200160068201805461204d90614cac565b80601f016020809104026020016040519081016040528092919081815260200182805461207990614cac565b80156120c65780601f1061209b576101008083540402835291602001916120c6565b820191906000526020600020905b8154815290600101906020018083116120a957829003601f168201915b505050505081526020016007820160009054906101000a900473ffffffffffffffffffffffffffffffffffffffff1673ffffffffffffffffffffffffffffffffffffffff1673ffffffffffffffffffffffffffffffffffffffff1681526020016008820154815260200160098201548152505081526020016001151581526020013373ffffffffffffffffffffffffffffffffffffffff168152602001428152506002856040516121779190614abd565b908152602001604051809103902060008201518160000190805190602001906121a1929190613b0c565b5060208201518160010160008201518160000190805190602001906121c7929190613b0c565b5060208201518160010190805190602001906121e4929190613b0c565b50604082015181600201600082015181600001908051906020019061220a929190613b0c565b506020820151816001019080519060200190612227929190613b0c565b506040820151816002019080519060200190612244929190613b0c565b506060820151816003019080519060200190612261929190613b0c565b50608082015181600401908051906020019061227e929190613b0c565b5060a082015181600501908051906020019061229b929190613b0c565b5060c08201518160060190805190602001906122b8929190613b0c565b5060e08201518160070160006101000a81548173ffffffffffffffffffffffffffffffffffffffff021916908373ffffffffffffffffffffffffffffffffffffffff160217905550610100820151816008015561012082015181600901555050606082015181600c019080519060200190612334929190613b92565b50608082015181600d019080519060200190612351929190613b0c565b5060a082015181600e0160006101000a81548173ffffffffffffffffffffffffffffffffffffffff021916908373ffffffffffffffffffffffffffffffffffffffff16021790555060c082015181600e0160146101000a81548160ff02191690831515021790555060e082015181600f01556101008201518160100155505060408201518160120190805190602001906123ec929190613b0c565b50606082015181601301556080820151816014019080519060200190612413929190613b92565b5060a0820151816015016000820151816000019080519060200190612439929190613b0c565b506020820151816001019080519060200190612456929190613b0c565b506040820151816002019080519060200190612473929190613b0c565b506060820151816003019080519060200190612490929190613b0c565b5060808201518160040190805190602001906124ad929190613b0c565b5060a08201518160050190805190602001906124ca929190613b0c565b5060c08201518160060190805190602001906124e7929190613b0c565b5060e08201518160070160006101000a81548173ffffffffffffffffffffffffffffffffffffffff021916908373ffffffffffffffffffffffffffffffffffffffff16021790555061010082015181600801556101208201518160090155505060c082015181601f0160006101000a81548160ff02191690831515021790555060e082015181601f0160016101000a81548173ffffffffffffffffffffffffffffffffffffffff021916908373ffffffffffffffffffffffffffffffffffffffff16021790555061010082015181602001559050503373ffffffffffffffffffffffffffffffffffffffff167faa7c1373d6c72dd9259c6ba32e22e22e41deb1830b02a0a33dc4e6839e0e1ae987878785426126039190614d0d565b42604051612615959493929190614e22565b60405180910390a2505050505050565b61262d613c5c565b813373ffffffffffffffffffffffffffffffffffffffff166000826040516126559190614abd565b908152602001604051809103902060070160009054906101000a900473ffffffffffffffffffffffffffffffffffffffff1673ffffffffffffffffffffffffffffffffffffffff16146126dd576040517f08c379a00000000000000000000000000000000000000000000000000000000081526004016126d490614b46565b60405180910390fd5b600083511415612722576040517f08c379a000000000000000000000000000000000000000000000000000000000815260040161271990614bb2565b60405180910390fd5b61272b836135ca565b61276a576040517f08c379a000000000000000000000000000000000000000000000000000000000815260040161276190614c1e565b60405180910390fd5b60008360405161277a9190614abd565b9081526020016040518091039020604051806101400160405290816000820180546127a490614cac565b80601f01602080910402602001604051908101604052809291908181526020018280546127d090614cac565b801561281d5780601f106127f25761010080835404028352916020019161281d565b820191906000526020600020905b81548152906001019060200180831161280057829003601f168201915b5050505050815260200160018201805461283690614cac565b80601f016020809104026020016040519081016040528092919081815260200182805461286290614cac565b80156128af5780601f10612884576101008083540402835291602001916128af565b820191906000526020600020905b81548152906001019060200180831161289257829003601f168201915b505050505081526020016002820180546128c890614cac565b80601f01602080910402602001604051908101604052809291908181526020018280546128f490614cac565b80156129415780601f1061291657610100808354040283529160200191612941565b820191906000526020600020905b81548152906001019060200180831161292457829003601f168201915b5050505050815260200160038201805461295a90614cac565b80601f016020809104026020016040519081016040528092919081815260200182805461298690614cac565b80156129d35780601f106129a8576101008083540402835291602001916129d3565b820191906000526020600020905b8154815290600101906020018083116129b657829003601f168201915b505050505081526020016004820180546129ec90614cac565b80601f0160208091040260200160405190810160405280929190818152602001828054612a1890614cac565b8015612a655780601f10612a3a57610100808354040283529160200191612a65565b820191906000526020600020905b815481529060010190602001808311612a4857829003601f168201915b50505050508152602001600582018054612a7e90614cac565b80601f0160208091040260200160405190810160405280929190818152602001828054612aaa90614cac565b8015612af75780601f10612acc57610100808354040283529160200191612af7565b820191906000526020600020905b815481529060010190602001808311612ada57829003601f168201915b50505050508152602001600682018054612b1090614cac565b80601f0160208091040260200160405190810160405280929190818152602001828054612b3c90614cac565b8015612b895780601f10612b5e57610100808354040283529160200191612b89565b820191906000526020600020905b815481529060010190602001808311612b6c57829003601f168201915b505050505081526020016007820160009054906101000a900473ffffffffffffffffffffffffffffffffffffffff1673ffffffffffffffffffffffffffffffffffffffff1673ffffffffffffffffffffffffffffffffffffffff16815260200160088201548152602001600982015481525050915050919050565b612c0d876135ca565b15612c4d576040517f08c379a0000000000000000000000000000000000000000000000000000000008152600401612c4490614ed6565b60405180910390fd5b6040518061014001604052808881526020018781526020018681526020018581526020018481526020018381526020018281526020013373ffffffffffffffffffffffffffffffffffffffff16815260200142815260200142815250600088604051612cb99190614abd565b90815260200160405180910390206000820151816000019080519060200190612ce3929190613b0c565b506020820151816001019080519060200190612d00929190613b0c565b506040820151816002019080519060200190612d1d929190613b0c565b506060820151816003019080519060200190612d3a929190613b0c565b506080820151816004019080519060200190612d57929190613b0c565b5060a0820151816005019080519060200190612d74929190613b0c565b5060c0820151816006019080519060200190612d91929190613b0c565b5060e08201518160070160006101000a81548173ffffffffffffffffffffffffffffffffffffffff021916908373ffffffffffffffffffffffffffffffffffffffff160217905550610100820151816008015561012082015181600901559050503373ffffffffffffffffffffffffffffffffffffffff167fd8457cc412078f830b2b77fdbee551af989146f8ac4114c273de2fba3e356b8f8842604051612e3a929190614c4d565b60405180910390a250505050505050565b813373ffffffffffffffffffffffffffffffffffffffff16600082604051612e739190614abd565b908152602001604051809103902060070160009054906101000a900473ffffffffffffffffffffffffffffffffffffffff1673ffffffffffffffffffffffffffffffffffffffff1614612efb576040517f08c379a0000000000000000000000000000000000000000000000000000000008152600401612ef290614b46565b60405180910390fd5b600083511415612f40576040517f08c379a0000000000000000000000000000000000000000000000000000000008152600401612f3790614bb2565b60405180910390fd5b612f49836135ca565b612f88576040517f08c379a0000000000000000000000000000000000000000000000000000000008152600401612f7f90614c1e565b60405180910390fd5b81600084604051612f999190614abd565b90815260200160405180910390206001019080519060200190612fbd929190613b0c565b5042600084604051612fcf9190614abd565b9081526020016040518091039020600801819055503373ffffffffffffffffffffffffffffffffffffffff167f820b8167613ee2aac4fe2aeb0a30cd567d4cd28a40ce3a9092cfb48dbc2e2b9f844260405161302c929190614c4d565b60405180910390a2505050565b6060600082511415613080576040517f08c379a000000000000000000000000000000000000000000000000000000000815260040161307790614bb2565b60405180910390fd5b613089826135ca565b6130c8576040517f08c379a00000000000000000000000000000000000000000000000000000000081526004016130bf90614c1e565b60405180910390fd5b60006132f06000846040516130dd9190614abd565b90815260200160405180910390206000016000856040516130fe9190614abd565b908152602001604051809103902060020160008660405161311f9190614abd565b90815260200160405180910390206003016000876040516131409190614abd565b90815260200160405180910390206004016000886040516131619190614abd565b90815260200160405180910390206005016000896040516131829190614abd565b908152602001604051809103902060060173__Strings_______________________________6371aad10d60008c6040516131bd9190614abd565b908152602001604051809103902060070160009054906101000a900473ffffffffffffffffffffffffffffffffffffffff166040516020016131ff9190614f3e565b6040516020818303038152906040526040518263ffffffff1660e01b815260040161322a9190614fae565b600060405180830381865af4158015613247573d6000803e3d6000fd5b505050506040513d6000823e3d601f19601f820116820180604052508101906132709190615040565b61329a60008c6040516132839190614abd565b9081526020016040518091039020600801546137d3565b6132c460008d6040516132ad9190614abd565b9081526020016040518091039020600901546137d3565b6040516020016132dc999897969594939291906154ad565b604051602081830303815290604052613934565b9050806040516020016133039190614abd565b604051602081830303815290604052915050919050565b60008142111561332d5760019050613332565b600090505b919050565b843373ffffffffffffffffffffffffffffffffffffffff1660008260405161335f9190614abd565b908152602001604051809103902060070160009054906101000a900473ffffffffffffffffffffffffffffffffffffffff1673ffffffffffffffffffffffffffffffffffffffff16146133e7576040517f08c379a00000000000000000000000000000000000000000000000000000000081526004016133de90614b46565b60405180910390fd5b60008651141561342c576040517f08c379a000000000000000000000000000000000000000000000000000000000815260040161342390614bb2565b60405180910390fd5b613435866135ca565b613474576040517f08c379a000000000000000000000000000000000000000000000000000000000815260040161346b90614c1e565b60405180910390fd5b846000876040516134859190614abd565b908152602001604051809103902060020190805190602001906134a9929190613b0c565b50836000876040516134bb9190614abd565b908152602001604051809103902060040190805190602001906134df929190613b0c565b50826000876040516134f19190614abd565b90815260200160405180910390206005019080519060200190613515929190613b0c565b50816000876040516135279190614abd565b9081526020016040518091039020600601908051906020019061354b929190613b0c565b504260008760405161355d9190614abd565b9081526020016040518091039020600801819055503373ffffffffffffffffffffffffffffffffffffffff167ff56711804dd9b3e2affc7dd8d116e47ff9a3571b488827063cc8941525bdb38c87426040516135ba929190614c4d565b60405180910390a2505050505050565b60008082511415613610576040517f08c379a000000000000000000000000000000000000000000000000000000000815260040161360790614bb2565b60405180910390fd5b816040516020016136219190614abd565b604051602081830303815290604052805190602001206000836040516136479190614abd565b908152602001604051809103902060000160405160200161366891906155f2565b604051602081830303815290604052805190602001201461368a57600061368d565b60015b9050919050565b600080825114156136da576040517f08c379a00000000000000000000000000000000000000000000000000000000081526004016136d190615655565b60405180910390fd5b600115156001836040516136ee9190614abd565b9081526020016040518091039020600e0160149054906101000a900460ff1615151461374f576040517f08c379a0000000000000000000000000000000000000000000000000000000008152600401613746906156c1565b60405180910390fd5b816040516020016137609190614abd565b604051602081830303815290604052805190602001206001836040516137869190614abd565b90815260200160405180910390206000016040516020016137a791906155f2565b60405160208183030381529060405280519060200120146137c95760006137cc565b60015b9050919050565b6060600082141561381b576040518060400160405280600181526020017f3000000000000000000000000000000000000000000000000000000000000000815250905061392f565b600082905060005b6000821461384d578080613836906156e1565b915050600a826138469190615759565b9150613823565b60008167ffffffffffffffff81111561386957613868613d35565b5b6040519080825280601f01601f19166020018201604052801561389b5781602001600182028036833780820191505090505b5090505b60008514613928576001826138b4919061578a565b9150600a856138c391906157be565b60306138cf9190614d0d565b60f81b8183815181106138e5576138e46157ef565b5b60200101907effffffffffffffffffffffffffffffffffffffffffffffffffffffffffffff1916908160001a905350600a856139219190615759565b945061389f565b8093505050505b919050565b6060600082519050600081141561395d5760405180602001604052806000815250915050613ac7565b6000600360028361396e9190614d0d565b6139789190615759565b6004613984919061581e565b905060006020826139959190614d0d565b67ffffffffffffffff8111156139ae576139ad613d35565b5b6040519080825280601f01601f1916602001820160405280156139e05781602001600182028036833780820191505090505b5090506000604051806060016040528060408152602001615879604091399050600181016020830160005b86811015613a845760038101905062ffffff818a015116603f8160121c168401518060081b905060ff603f83600c1c1686015116810190508060081b905060ff603f8360061c1686015116810190508060081b905060ff603f831686015116810190508060e01b90508084526004840193505050613a0b565b506003860660018114613a9e5760028114613aae57613ab9565b613d3d60f01b6002830352613ab9565b603d60f81b60018303525b508484525050819450505050505b919050565b508054613ad890614cac565b6000825580601f10613aea5750613b09565b601f016020900490600052602060002090810190613b089190613cc5565b5b50565b828054613b1890614cac565b90600052602060002090601f016020900481019282613b3a5760008555613b81565b82601f10613b5357805160ff1916838001178555613b81565b82800160010185558215613b81579182015b82811115613b80578251825591602001919060010190613b65565b5b509050613b8e9190613cc5565b5090565b828054828255906000526020600020908101928215613be1579160200282015b82811115613be0578251829080519060200190613bd0929190613b0c565b5091602001919060010190613bb2565b5b509050613bee9190613ce2565b5090565b6040518061012001604052806060815260200160608152602001613c14613c5c565b81526020016060815260200160608152602001600073ffffffffffffffffffffffffffffffffffffffff16815260200160001515815260200160008152602001600081525090565b60405180610140016040528060608152602001606081526020016060815260200160608152602001606081526020016060815260200160608152602001600073ffffffffffffffffffffffffffffffffffffffff16815260200160008152602001600081525090565b5b80821115613cde576000816000905550600101613cc6565b5090565b5b80821115613d025760008181613cf99190613acc565b50600101613ce3565b5090565b6000604051905090565b600080fd5b600080fd5b600080fd5b600080fd5b6000601f19601f8301169050919050565b7f4e487b7100000000000000000000000000000000000000000000000000000000600052604160045260246000fd5b613d6d82613d24565b810181811067ffffffffffffffff82111715613d8c57613d8b613d35565b5b80604052505050565b6000613d9f613d06565b9050613dab8282613d64565b919050565b600067ffffffffffffffff821115613dcb57613dca613d35565b5b613dd482613d24565b9050602081019050919050565b82818337600083830152505050565b6000613e03613dfe84613db0565b613d95565b905082815260208101848484011115613e1f57613e1e613d1f565b5b613e2a848285613de1565b509392505050565b600082601f830112613e4757613e46613d1a565b5b8135613e57848260208601613df0565b91505092915050565b600060208284031215613e7657613e75613d10565b5b600082013567ffffffffffffffff811115613e9457613e93613d15565b5b613ea084828501613e32565b91505092915050565b600067ffffffffffffffff821115613ec457613ec3613d35565b5b602082029050602081019050919050565b600080fd5b6000613eed613ee884613ea9565b613d95565b90508083825260208201905060208402830185811115613f1057613f0f613ed5565b5b835b81811015613f5757803567ffffffffffffffff811115613f3557613f34613d1a565b5b808601613f428982613e32565b85526020850194505050602081019050613f12565b5050509392505050565b600082601f830112613f7657613f75613d1a565b5b8135613f86848260208601613eda565b91505092915050565b6000819050919050565b613fa281613f8f565b8114613fad57600080fd5b50565b600081359050613fbf81613f99565b92915050565b60008060008060008060c08789031215613fe257613fe1613d10565b5b600087013567ffffffffffffffff81111561400057613fff613d15565b5b61400c89828a01613e32565b965050602087013567ffffffffffffffff81111561402d5761402c613d15565b5b61403989828a01613e32565b955050604087013567ffffffffffffffff81111561405a57614059613d15565b5b61406689828a01613e32565b945050606087013567ffffffffffffffff81111561408757614086613d15565b5b61409389828a01613f61565b935050608087013567ffffffffffffffff8111156140b4576140b3613d15565b5b6140c089828a01613e32565b92505060a06140d189828a01613fb0565b9150509295509295509295565b600081519050919050565b600082825260208201905092915050565b60005b838110156141185780820151818401526020810190506140fd565b83811115614127576000848401525b50505050565b6000614138826140de565b61414281856140e9565b93506141528185602086016140fa565b61415b81613d24565b840191505092915050565b600073ffffffffffffffffffffffffffffffffffffffff82169050919050565b600061419182614166565b9050919050565b6141a181614186565b82525050565b6141b081613f8f565b82525050565b60006101408301600083015184820360008601526141d4828261412d565b915050602083015184820360208601526141ee828261412d565b91505060408301518482036040860152614208828261412d565b91505060608301518482036060860152614222828261412d565b9150506080830151848203608086015261423c828261412d565b91505060a083015184820360a0860152614256828261412d565b91505060c083015184820360c0860152614270828261412d565b91505060e083015161428560e0860182614198565b5061010083015161429a6101008601826141a7565b506101208301516142af6101208601826141a7565b508091505092915050565b600081519050919050565b600082825260208201905092915050565b6000819050602082019050919050565b60006142f2838361412d565b905092915050565b6000602082019050919050565b6000614312826142ba565b61431c81856142c5565b93508360208202850161432e856142d6565b8060005b8581101561436a578484038952815161434b85826142e6565b9450614356836142fa565b925060208a01995050600181019050614332565b50829750879550505050505092915050565b60008115159050919050565b6143918161437c565b82525050565b60006101208301600083015184820360008601526143b5828261412d565b915050602083015184820360208601526143cf828261412d565b915050604083015184820360408601526143e982826141b6565b915050606083015184820360608601526144038282614307565b9150506080830151848203608086015261441d828261412d565b91505060a083015161443260a0860182614198565b5060c083015161444560c0860182614388565b5060e083015161445860e08601826141a7565b5061010083015161446d6101008601826141a7565b508091505092915050565b600060208201905081810360008301526144928184614397565b905092915050565b60008060008060008060c087890312156144b7576144b6613d10565b5b600087013567ffffffffffffffff8111156144d5576144d4613d15565b5b6144e189828a01613e32565b965050602087013567ffffffffffffffff81111561450257614501613d15565b5b61450e89828a01613e32565b955050604087013567ffffffffffffffff81111561452f5761452e613d15565b5b61453b89828a01613e32565b945050606087013567ffffffffffffffff81111561455c5761455b613d15565b5b61456889828a01613e32565b935050608087013567ffffffffffffffff81111561458957614588613d15565b5b61459589828a01613f61565b92505060a06145a689828a01613fb0565b9150509295509295509295565b60006101408301600083015184820360008601526145d1828261412d565b915050602083015184820360208601526145eb828261412d565b91505060408301518482036040860152614605828261412d565b9150506060830151848203606086015261461f828261412d565b91505060808301518482036080860152614639828261412d565b91505060a083015184820360a0860152614653828261412d565b91505060c083015184820360c086015261466d828261412d565b91505060e083015161468260e0860182614198565b506101008301516146976101008601826141a7565b506101208301516146ac6101208601826141a7565b508091505092915050565b600060208201905081810360008301526146d181846145b3565b905092915050565b600080600080600080600060e0888a0312156146f8576146f7613d10565b5b600088013567ffffffffffffffff81111561471657614715613d15565b5b6147228a828b01613e32565b975050602088013567ffffffffffffffff81111561474357614742613d15565b5b61474f8a828b01613e32565b965050604088013567ffffffffffffffff8111156147705761476f613d15565b5b61477c8a828b01613e32565b955050606088013567ffffffffffffffff81111561479d5761479c613d15565b5b6147a98a828b01613e32565b945050608088013567ffffffffffffffff8111156147ca576147c9613d15565b5b6147d68a828b01613e32565b93505060a088013567ffffffffffffffff8111156147f7576147f6613d15565b5b6148038a828b01613e32565b92505060c088013567ffffffffffffffff81111561482457614823613d15565b5b6148308a828b01613e32565b91505092959891949750929550565b6000806040838503121561485657614855613d10565b5b600083013567ffffffffffffffff81111561487457614873613d15565b5b61488085828601613e32565b925050602083013567ffffffffffffffff8111156148a1576148a0613d15565b5b6148ad85828601613e32565b9150509250929050565b600082825260208201905092915050565b60006148d3826140de565b6148dd81856148b7565b93506148ed8185602086016140fa565b6148f681613d24565b840191505092915050565b6000602082019050818103600083015261491b81846148c8565b905092915050565b60006020828403121561493957614938613d10565b5b600061494784828501613fb0565b91505092915050565b6149598161437c565b82525050565b60006020820190506149746000830184614950565b92915050565b600080600080600060a0868803121561499657614995613d10565b5b600086013567ffffffffffffffff8111156149b4576149b3613d15565b5b6149c088828901613e32565b955050602086013567ffffffffffffffff8111156149e1576149e0613d15565b5b6149ed88828901613e32565b945050604086013567ffffffffffffffff811115614a0e57614a0d613d15565b5b614a1a88828901613e32565b935050606086013567ffffffffffffffff811115614a3b57614a3a613d15565b5b614a4788828901613e32565b925050608086013567ffffffffffffffff811115614a6857614a67613d15565b5b614a7488828901613e32565b9150509295509295909350565b600081905092915050565b6000614a97826140de565b614aa18185614a81565b9350614ab18185602086016140fa565b80840191505092915050565b6000614ac98284614a8c565b915081905092915050565b7f596f7520617265206e6f7420617574686f72697a656420746f2061636365737360008201527f207468697320636c69656e742e00000000000000000000000000000000000000602082015250565b6000614b30602d836148b7565b9150614b3b82614ad4565b604082019050919050565b60006020820190508181036000830152614b5f81614b23565b9050919050565b7f436c69656e7420696420697320656d7074792021000000000000000000000000600082015250565b6000614b9c6014836148b7565b9150614ba782614b66565b602082019050919050565b60006020820190508181036000830152614bcb81614b8f565b9050919050565b7f496e76616c696420636c69656e74206964202100000000000000000000000000600082015250565b6000614c086013836148b7565b9150614c1382614bd2565b602082019050919050565b60006020820190508181036000830152614c3781614bfb565b9050919050565b614c4781613f8f565b82525050565b60006040820190508181036000830152614c6781856148c8565b9050614c766020830184614c3e565b9392505050565b7f4e487b7100000000000000000000000000000000000000000000000000000000600052602260045260246000fd5b60006002820490506001821680614cc457607f821691505b60208210811415614cd857614cd7614c7d565b5b50919050565b7f4e487b7100000000000000000000000000000000000000000000000000000000600052601160045260246000fd5b6000614d1882613f8f565b9150614d2383613f8f565b9250827fffffffffffffffffffffffffffffffffffffffffffffffffffffffffffffffff03821115614d5857614d57614cde565b5b828201905092915050565b60006080820190508181036000830152614d7d81876148c8565b90508181036020830152614d9181866148c8565b9050614da06040830185614c3e565b614dad6060830184614c3e565b95945050505050565b7f496e76616c696420617574686f72697a6174696f6e20636f6465202120000000600082015250565b6000614dec601d836148b7565b9150614df782614db6565b602082019050919050565b60006020820190508181036000830152614e1b81614ddf565b9050919050565b600060a0820190508181036000830152614e3c81886148c8565b90508181036020830152614e5081876148c8565b90508181036040830152614e6481866148c8565b9050614e736060830185614c3e565b614e806080830184614c3e565b9695505050505050565b7f436c69656e7420616c7265616479206578697374732100000000000000000000600082015250565b6000614ec06016836148b7565b9150614ecb82614e8a565b602082019050919050565b60006020820190508181036000830152614eef81614eb3565b9050919050565b60008160601b9050919050565b6000614f0e82614ef6565b9050919050565b6000614f2082614f03565b9050919050565b614f38614f3382614186565b614f15565b82525050565b6000614f4a8284614f27565b60148201915081905092915050565b600081519050919050565b600082825260208201905092915050565b6000614f8082614f59565b614f8a8185614f64565b9350614f9a8185602086016140fa565b614fa381613d24565b840191505092915050565b60006020820190508181036000830152614fc88184614f75565b905092915050565b6000614fe3614fde84613db0565b613d95565b905082815260208101848484011115614fff57614ffe613d1f565b5b61500a8482856140fa565b509392505050565b600082601f83011261502757615026613d1a565b5b8151615037848260208601614fd0565b91505092915050565b60006020828403121561505657615055613d10565b5b600082015167ffffffffffffffff81111561507457615073613d15565b5b61508084828501615012565b91505092915050565b7f7b22636c69656e745f6964223a20220000000000000000000000000000000000600082015250565b60006150bf600f83614a81565b91506150ca82615089565b600f82019050919050565b60008190508160005260206000209050919050565b600081546150f781614cac565b6151018186614a81565b9450600182166000811461511c576001811461512d57615160565b60ff19831686528186019350615160565b615136856150d5565b60005b8381101561515857815481890152600182019150602081019050615139565b838801955050505b50505092915050565b7f222c000000000000000000000000000000000000000000000000000000000000600082015250565b600061519f600283614a81565b91506151aa82615169565b600282019050919050565b7f22636c69656e745f6e616d65223a202200000000000000000000000000000000600082015250565b60006151eb601083614a81565b91506151f6826151b5565b601082019050919050565b7f22636c69656e745f6c6f676f223a202200000000000000000000000000000000600082015250565b6000615237601083614a81565b915061524282615201565b601082019050919050565b7f22636c69656e745f6465736372697074696f6e223a2022000000000000000000600082015250565b6000615283601783614a81565b915061528e8261524d565b601782019050919050565b7f22636c69656e745f686f6d6570616765223a2022000000000000000000000000600082015250565b60006152cf601483614a81565b91506152da82615299565b601482019050919050565b7f2272656469726563745f757269223a2022000000000000000000000000000000600082015250565b600061531b601183614a81565b9150615326826152e5565b601182019050919050565b7f22636c69656e745f6f776e6572223a2022000000000000000000000000000000600082015250565b6000615367601183614a81565b915061537282615331565b601182019050919050565b7f227570646174655f64617465223a200000000000000000000000000000000000600082015250565b60006153b3600f83614a81565b91506153be8261537d565b600f82019050919050565b7f2c00000000000000000000000000000000000000000000000000000000000000600082015250565b60006153ff600183614a81565b915061540a826153c9565b600182019050919050565b7f226372656174655f64617465223a200000000000000000000000000000000000600082015250565b600061544b600f83614a81565b915061545682615415565b600f82019050919050565b7f7d00000000000000000000000000000000000000000000000000000000000000600082015250565b6000615497600183614a81565b91506154a282615461565b600182019050919050565b60006154b8826150b2565b91506154c4828c6150ea565b91506154cf82615192565b91506154da826151de565b91506154e6828b6150ea565b91506154f182615192565b91506154fc8261522a565b9150615508828a6150ea565b915061551382615192565b915061551e82615276565b915061552a82896150ea565b915061553582615192565b9150615540826152c2565b915061554c82886150ea565b915061555782615192565b91506155628261530e565b915061556e82876150ea565b915061557982615192565b91506155848261535a565b91506155908286614a8c565b915061559b82615192565b91506155a6826153a6565b91506155b28285614a8c565b91506155bd826153f2565b91506155c88261543e565b91506155d48284614a8c565b91506155df8261548a565b91508190509a9950505050505050505050565b60006155fe82846150ea565b915081905092915050565b7f417574686f72697a6174696f6e20636f646520697320656d7074792021000000600082015250565b600061563f601d836148b7565b915061564a82615609565b602082019050919050565b6000602082019050818103600083015261566e81615632565b9050919050565b7f417574686f72697a6174696f6e20636f64652069732061637469766500000000600082015250565b60006156ab601c836148b7565b91506156b682615675565b602082019050919050565b600060208201905081810360008301526156da8161569e565b9050919050565b60006156ec82613f8f565b91507fffffffffffffffffffffffffffffffffffffffffffffffffffffffffffffffff82141561571f5761571e614cde565b5b600182019050919050565b7f4e487b7100000000000000000000000000000000000000000000000000000000600052601260045260246000fd5b600061576482613f8f565b915061576f83613f8f565b92508261577f5761577e61572a565b5b828204905092915050565b600061579582613f8f565b91506157a083613f8f565b9250828210156157b3576157b2614cde565b5b828203905092915050565b60006157c982613f8f565b91506157d483613f8f565b9250826157e4576157e361572a565b5b828206905092915050565b7f4e487b7100000000000000000000000000000000000000000000000000000000600052603260045260246000fd5b600061582982613f8f565b915061583483613f8f565b9250817fffffffffffffffffffffffffffffffffffffffffffffffffffffffffffffffff048311821515161561586d5761586c614cde565b5b82820290509291505056fe4142434445464748494a4b4c4d4e4f505152535455565758595a6162636465666768696a6b6c6d6e6f707172737475767778797a303132333435363738392b2fa2646970667358221220a9242add1d8afba4b75fbbc89d918910ac62c76f88a8b291ef2eb5aefcae24e764736f6c634300080b0033",
  "immutableReferences": {},
  "source": "// SPDX-License-Identifier: MIT\npragma solidity ^0.8.11;\n\n// We need to import the helper functions from the contract that we copy/pasted.\nimport {Base64} from \"./libraries/Base64.sol\";\nimport {Strings} from \"./libraries/Strings.sol\";\n\ncontract IAM {\n    modifier clientOwner(string memory _client_id) {\n        require(\n            clients[_client_id].client_owner == msg.sender,\n            \"You are not authorized to access this client.\"\n        );\n        _;\n    }\n\n    struct Clients {\n        string client_id; //clientid lowercase clientname\n        string client_secret;\n        string client_name; // unique\n        string client_logo; // svg , png , jpeg encode Base64 to string\n        string client_description;\n        string client_homepage;\n        string redirect_uri;\n        address client_owner;\n        uint256 update_date;\n        uint256 create_date;\n    }\n\n    struct Authorizations {\n        string authorization_id;\n        string authorization_code;\n        Clients client;\n        string[] scopes;\n        string redirect_uri;\n        address client_user;\n        bool is_active;\n        uint256 expires_at;\n        uint256 create_date;\n    }\n\n    struct Tokens {\n        string token_id;\n        Authorizations authorization;\n        string access_token;\n        uint256 access_token_expires_at;\n        string[] scopes;\n        // string refresh_token;\n        // uint256 refresh_token_expires_at;\n        Clients client;\n        bool is_active;\n        address client_user;\n        uint256 create_date;\n    }\n\n    mapping(string => Clients) clients;\n    mapping(string => Authorizations) authorizations;\n    mapping(string => Tokens) tokens;\n\n    event AddClient(\n        address indexed _client_owner,\n        string _client_id,\n        uint256 _create_date\n    );\n\n    event DelClient(\n        address indexed _client_owner,\n        string _client_id,\n        uint256 _del_date\n    );\n\n    event EditClient(\n        address indexed _client_owner,\n        string _client_id,\n        uint256 _update_date\n    );\n\n    event RenewClientSecret(\n        address indexed _client_owner,\n        string _client_id,\n        uint256 _event_at\n    );\n\n    event GrantAuthorize(\n        address indexed _client_user,\n        string _client_id,\n        string _authorize_id,\n        uint256 expires_at,\n        uint256 _create_date\n    );\n\n    event ClientRevoke(\n        address indexed _client_owner,\n        string indexed _client_id,\n        uint256 _event_at\n    );\n\n    event UserClientRevoke(\n        address indexed _client_user,\n        string _client_id,\n        uint256 _event_at\n    );\n\n    event CreateAccessToken(\n        address indexed _client_user,\n        string _client_id,\n        string _authorization_id,\n        string _access_token_id,\n        uint256 expires_at,\n        uint256 _create_date\n    );\n\n    function createClient(\n        string memory _client_id,\n        string memory _client_secret,\n        string memory _client_name,\n        string memory _client_logo,\n        string memory _client_description,\n        string memory _client_homepage,\n        string memory _redirect_uri\n    ) public {\n        require(!isClient(_client_id), \"Client already exists!\");\n        clients[_client_id] = Clients({\n            client_id: _client_id,\n            client_name: _client_name,\n            client_secret: _client_secret,\n            client_logo: _client_logo,\n            client_description: _client_description,\n            client_homepage: _client_homepage,\n            redirect_uri: _redirect_uri,\n            client_owner: msg.sender,\n            update_date: block.timestamp,\n            create_date: block.timestamp\n        });\n        emit AddClient(msg.sender, _client_id, block.timestamp);\n    }\n\n    function deleteClient(string memory _client_id)\n        public\n        clientOwner(_client_id)\n    {\n        require(bytes(_client_id).length != 0, \"Client id is empty !\");\n        require(isClient(_client_id), \"Invalid client id !\");\n\n        delete clients[_client_id];\n        emit DelClient(msg.sender, _client_id, block.timestamp);\n    }\n\n    function editClient(\n        string memory _client_id,\n        string memory _client_name,\n        string memory _client_description,\n        string memory _client_homepage,\n        string memory _redirect_uri\n    ) public clientOwner(_client_id) {\n        require(bytes(_client_id).length != 0, \"Client id is empty !\");\n        require(isClient(_client_id), \"Invalid client id !\");\n        clients[_client_id].client_name = _client_name;\n        clients[_client_id].client_description = _client_description;\n        clients[_client_id].client_homepage = _client_homepage;\n        clients[_client_id].redirect_uri = _redirect_uri;\n        clients[_client_id].update_date = block.timestamp;\n        emit EditClient(msg.sender, _client_id, block.timestamp);\n    }\n\n    function renewClientSecret(\n        string memory _client_id,\n        string memory _client_secret\n    ) public clientOwner(_client_id) {\n        require(bytes(_client_id).length != 0, \"Client id is empty !\");\n        require(isClient(_client_id), \"Invalid client id !\");\n        clients[_client_id].client_secret = _client_secret;\n        clients[_client_id].update_date = block.timestamp;\n        emit RenewClientSecret(msg.sender, _client_id, block.timestamp);\n    }\n\n    function getClientByOwner(string memory _client_id)\n        public\n        view\n        clientOwner(_client_id)\n        returns (Clients memory)\n    {\n        require(bytes(_client_id).length != 0, \"Client id is empty !\");\n        require(isClient(_client_id), \"Invalid client id !\");\n        return clients[_client_id];\n    }\n\n    function getClientPublicJson(string memory _client_id)\n        public\n        view\n        returns (string memory)\n    {\n        require(bytes(_client_id).length != 0, \"Client id is empty !\");\n        require(isClient(_client_id), \"Invalid client id !\");\n        string memory client = Base64.encode(\n            bytes(\n                string(\n                    abi.encodePacked(\n                        '{\"client_id\": \"',\n                        clients[_client_id].client_id,\n                        '\",',\n                        '\"client_name\": \"',\n                        clients[_client_id].client_name,\n                        '\",',\n                        '\"client_logo\": \"',\n                        clients[_client_id].client_logo,\n                        '\",',\n                        '\"client_description\": \"',\n                        clients[_client_id].client_description,\n                        '\",',\n                        '\"client_homepage\": \"',\n                        clients[_client_id].client_homepage,\n                        '\",',\n                        '\"redirect_uri\": \"',\n                        clients[_client_id].redirect_uri,\n                        '\",',\n                        '\"client_owner\": \"',\n                        Strings.toString(\n                            abi.encodePacked(clients[_client_id].client_owner)\n                        ),\n                        '\",',\n                        '\"update_date\": ',\n                        Strings.uint256ToString(\n                            clients[_client_id].update_date\n                        ),\n                        \",\",\n                        '\"create_date\": ',\n                        Strings.uint256ToString(\n                            clients[_client_id].create_date\n                        ),\n                        \"}\"\n                    )\n                )\n            )\n        );\n        return string(abi.encodePacked(client));\n    }\n\n    function isExpire(uint256 _expires_at) public view returns (bool) {\n        if (block.timestamp > _expires_at) {\n            return true;\n        }\n        return false;\n    }\n\n    function isClient(string memory _client_id) private view returns (bool) {\n        require(bytes(_client_id).length != 0, \"Client id is empty !\");\n        return\n            keccak256(abi.encodePacked(clients[_client_id].client_id)) ==\n                keccak256(abi.encodePacked(_client_id))\n                ? true\n                : false;\n    }\n\n    function createAuthorize(\n        string memory _client_id,\n        string memory _authorization_id,\n        string memory _authorization_code,\n        string[] memory _scopes,\n        string memory _redirect_uri,\n        uint256 _expiration_period // unit seconds\n    ) public {\n        require(isClient(_client_id), \"Invalid client id !\");\n        authorizations[_authorization_id] = Authorizations({\n            authorization_id: _authorization_id,\n            authorization_code: _authorization_code,\n            client: clients[_client_id],\n            scopes: _scopes,\n            redirect_uri: _redirect_uri,\n            client_user: msg.sender,\n            is_active: true,\n            expires_at: block.timestamp + _expiration_period, // create expire time\n            create_date: block.timestamp\n        });\n\n        emit GrantAuthorize(\n            msg.sender,\n            _client_id,\n            _authorization_id,\n            block.timestamp + _expiration_period,\n            block.timestamp\n        );\n    }\n\n    function createAccessToken(\n        string memory _client_id,\n        string memory _authorization_id,\n        string memory _access_token_id,\n        string memory _access_token,\n        string[] memory _scopes,\n        uint256 _expiration_period\n    ) public {\n        require(isClient(_client_id), \"Invalid client id !\");\n        require(isAuthorizationCode(_authorization_id));\n        tokens[_access_token_id] = Tokens({\n            token_id: _access_token_id,\n            authorization: authorizations[_authorization_id],\n            access_token: _access_token,\n            access_token_expires_at: block.timestamp + _expiration_period, // create expire time\n            client: clients[_client_id],\n            scopes: _scopes,\n            client_user: msg.sender,\n            is_active: true,\n            create_date: block.timestamp\n        });\n\n        emit CreateAccessToken(\n            msg.sender,\n            _client_id,\n            _authorization_id,\n            _access_token_id,\n            block.timestamp + _expiration_period,\n            block.timestamp\n        );\n    }\n\n    function getGrantAuthorize(string memory _authorization_id)\n        public\n        view\n        returns (Authorizations memory)\n    {\n        require(\n            isAuthorizationCode(_authorization_id),\n            \"Invalid authorization code ! \"\n        );\n\n        return authorizations[_authorization_id];\n    }\n\n    function isAuthorizationCode(string memory _authorization_id)\n        private\n        view\n        returns (bool)\n    {\n        require(\n            bytes(_authorization_id).length != 0,\n            \"Authorization code is empty !\"\n        );\n        require(\n            authorizations[_authorization_id].is_active == true,\n            \"Authorization code is active\"\n        );\n        return\n            keccak256(\n                abi.encodePacked(\n                    authorizations[_authorization_id].authorization_id\n                )\n            ) == keccak256(abi.encodePacked(_authorization_id))\n                ? true\n                : false;\n    }\n}\n",
  "sourcePath": "/Users/kritsanawipankhet/Development/iamblockchain-smartcontract/contracts/IAM.sol",
  "compiler": {
    "name": "solc",
    "version": "0.8.11+commit.d7f03943.Emscripten.clang"
  },
  "schemaVersion": "3.4.6",
  "updatedAt": "2022-05-02T00:27:24.517Z",
  "networkType": "ethereum",
  "devdoc": {
    "kind": "dev",
    "methods": {},
    "version": 1
  },
  "userdoc": {
    "kind": "user",
    "methods": {},
    "version": 1
  }
}