{
  "contractName": "IAM",
  "abi": [
    {
      "anonymous": false,
      "inputs": [
        {
          "indexed": true,
          "internalType": "address",
          "name": "_client_owner",
          "type": "address"
        },
        {
          "indexed": false,
          "internalType": "string",
          "name": "_client_id",
          "type": "string"
        },
        {
          "indexed": false,
          "internalType": "uint256",
          "name": "_create_date",
          "type": "uint256"
        }
      ],
      "name": "AddClient",
      "type": "event"
    },
    {
      "anonymous": false,
      "inputs": [
        {
          "indexed": true,
          "internalType": "address",
          "name": "_client_owner",
          "type": "address"
        },
        {
          "indexed": false,
          "internalType": "string",
          "name": "_client_id",
          "type": "string"
        },
        {
          "indexed": false,
          "internalType": "uint256",
          "name": "_del_date",
          "type": "uint256"
        }
      ],
      "name": "DelClient",
      "type": "event"
    },
    {
      "anonymous": false,
      "inputs": [
        {
          "indexed": false,
          "internalType": "string",
          "name": "_client_id",
          "type": "string"
        },
        {
          "indexed": false,
          "internalType": "address",
          "name": "_client_owner",
          "type": "address"
        },
        {
          "indexed": false,
          "internalType": "uint256",
          "name": "_update_date",
          "type": "uint256"
        }
      ],
      "name": "EditClient",
      "type": "event"
    },
    {
      "anonymous": false,
      "inputs": [
        {
          "indexed": false,
          "internalType": "string",
          "name": "_client_id",
          "type": "string"
        },
        {
          "indexed": false,
          "internalType": "address",
          "name": "_client_user",
          "type": "address"
        },
        {
          "indexed": false,
          "internalType": "uint256",
          "name": "_create_date",
          "type": "uint256"
        }
      ],
      "name": "grantAuthorize",
      "type": "event"
    },
    {
      "inputs": [
        {
          "internalType": "string",
          "name": "_client_id",
          "type": "string"
        },
        {
          "internalType": "string",
          "name": "_authorization_code",
          "type": "string"
        },
        {
          "internalType": "string[]",
          "name": "_scopes",
          "type": "string[]"
        },
        {
          "internalType": "string",
          "name": "_redirect_uri",
          "type": "string"
        },
        {
          "internalType": "uint256",
          "name": "_expiration_period",
          "type": "uint256"
        }
      ],
      "name": "createAuthorize",
      "outputs": [],
      "stateMutability": "nonpayable",
      "type": "function"
    },
    {
      "inputs": [
        {
          "internalType": "string",
          "name": "_authorization_code",
          "type": "string"
        }
      ],
      "name": "getGrantAuthorize",
      "outputs": [
        {
          "components": [
            {
              "internalType": "string",
              "name": "authorization_code",
              "type": "string"
            },
            {
              "components": [
                {
                  "internalType": "string",
                  "name": "client_id",
                  "type": "string"
                },
                {
                  "internalType": "string",
                  "name": "client_secret",
                  "type": "string"
                },
                {
                  "internalType": "string",
                  "name": "client_name",
                  "type": "string"
                },
                {
                  "internalType": "string",
                  "name": "client_logo",
                  "type": "string"
                },
                {
                  "internalType": "string",
                  "name": "client_description",
                  "type": "string"
                },
                {
                  "internalType": "string",
                  "name": "client_homepage",
                  "type": "string"
                },
                {
                  "internalType": "string",
                  "name": "redirect_uri",
                  "type": "string"
                },
                {
                  "internalType": "address",
                  "name": "client_owner",
                  "type": "address"
                },
                {
                  "internalType": "uint256",
                  "name": "update_date",
                  "type": "uint256"
                },
                {
                  "internalType": "uint256",
                  "name": "create_date",
                  "type": "uint256"
                }
              ],
              "internalType": "struct IAM.Clients",
              "name": "client",
              "type": "tuple"
            },
            {
              "internalType": "string[]",
              "name": "scopes",
              "type": "string[]"
            },
            {
              "internalType": "string",
              "name": "redirect_uri",
              "type": "string"
            },
            {
              "internalType": "address",
              "name": "client_user",
              "type": "address"
            },
            {
              "internalType": "uint256",
              "name": "expires_at",
              "type": "uint256"
            },
            {
              "internalType": "uint256",
              "name": "create_date",
              "type": "uint256"
            }
          ],
          "internalType": "struct IAM.Authorizations",
          "name": "",
          "type": "tuple"
        }
      ],
      "stateMutability": "view",
      "type": "function",
      "constant": true
    },
    {
      "inputs": [
        {
          "internalType": "string",
          "name": "_client_id",
          "type": "string"
        },
        {
          "internalType": "string",
          "name": "_client_secret",
          "type": "string"
        },
        {
          "internalType": "string",
          "name": "_client_name",
          "type": "string"
        },
        {
          "internalType": "string",
          "name": "_client_logo",
          "type": "string"
        },
        {
          "internalType": "string",
          "name": "_client_description",
          "type": "string"
        },
        {
          "internalType": "string",
          "name": "_client_homepage",
          "type": "string"
        },
        {
          "internalType": "string",
          "name": "_redirect_uri",
          "type": "string"
        }
      ],
      "name": "createClient",
      "outputs": [],
      "stateMutability": "nonpayable",
      "type": "function"
    },
    {
      "inputs": [
        {
          "internalType": "string",
          "name": "_client_id",
          "type": "string"
        }
      ],
      "name": "deleteClient",
      "outputs": [],
      "stateMutability": "nonpayable",
      "type": "function"
    },
    {
      "inputs": [
        {
          "internalType": "string",
          "name": "_client_id",
          "type": "string"
        }
      ],
      "name": "getClientByOwner",
      "outputs": [
        {
          "components": [
            {
              "internalType": "string",
              "name": "client_id",
              "type": "string"
            },
            {
              "internalType": "string",
              "name": "client_secret",
              "type": "string"
            },
            {
              "internalType": "string",
              "name": "client_name",
              "type": "string"
            },
            {
              "internalType": "string",
              "name": "client_logo",
              "type": "string"
            },
            {
              "internalType": "string",
              "name": "client_description",
              "type": "string"
            },
            {
              "internalType": "string",
              "name": "client_homepage",
              "type": "string"
            },
            {
              "internalType": "string",
              "name": "redirect_uri",
              "type": "string"
            },
            {
              "internalType": "address",
              "name": "client_owner",
              "type": "address"
            },
            {
              "internalType": "uint256",
              "name": "update_date",
              "type": "uint256"
            },
            {
              "internalType": "uint256",
              "name": "create_date",
              "type": "uint256"
            }
          ],
          "internalType": "struct IAM.Clients",
          "name": "",
          "type": "tuple"
        }
      ],
      "stateMutability": "view",
      "type": "function",
      "constant": true
    },
    {
      "inputs": [
        {
          "internalType": "string",
          "name": "_client_id",
          "type": "string"
        }
      ],
      "name": "getClientPublicJson",
      "outputs": [
        {
          "internalType": "string",
          "name": "",
          "type": "string"
        }
      ],
      "stateMutability": "view",
      "type": "function",
      "constant": true
    },
    {
      "inputs": [
        {
          "internalType": "uint256",
          "name": "_expires_at",
          "type": "uint256"
        }
      ],
      "name": "isExpire",
      "outputs": [
        {
          "internalType": "bool",
          "name": "",
          "type": "bool"
        }
      ],
      "stateMutability": "view",
      "type": "function",
      "constant": true
    }
  ],
  "bytecode": "0x608060405234801561001057600080fd5b50613a39806100206000396000f3fe608060405234801561001057600080fd5b506004361061007d5760003560e01c8063b4cacee81161005b578063b4cacee8146100fe578063ba920db81461011a578063da882fbb14610136578063e1177886146101665761007d565b8063184183db1461008257806368239cd51461009e5780639aa79f30146100ce575b600080fd5b61009c600480360381019061009791906124af565b610196565b005b6100b860048036038101906100b391906124af565b6103ef565b6040516100c59190612851565b60405180910390f35b6100e860048036038101906100e391906124af565b610b0b565b6040516100f59190612977565b60405180910390f35b61011860048036038101906101139190612aab565b6110ea565b005b610134600480360381019061012f9190612b96565b611824565b005b610150600480360381019061014b91906124af565b611a6b565b60405161015d9190612d46565b60405180910390f35b610180600480360381019061017b9190612d68565b611d4c565b60405161018d9190612db0565b60405180910390f35b803373ffffffffffffffffffffffffffffffffffffffff166000826040516101be9190612e07565b908152602001604051809103902060070160009054906101000a900473ffffffffffffffffffffffffffffffffffffffff1673ffffffffffffffffffffffffffffffffffffffff1614610246576040517f08c379a000000000000000000000000000000000000000000000000000000000815260040161023d90612e90565b60405180910390fd5b60008251141561028b576040517f08c379a000000000000000000000000000000000000000000000000000000000815260040161028290612efc565b60405180910390fd5b61029482611d69565b6102d3576040517f08c379a00000000000000000000000000000000000000000000000000000000081526004016102ca90612f68565b60405180910390fd5b6000826040516102e39190612e07565b908152602001604051809103902060008082016000610302919061212c565b600182016000610312919061212c565b600282016000610322919061212c565b600382016000610332919061212c565b600482016000610342919061212c565b600582016000610352919061212c565b600682016000610362919061212c565b6007820160006101000a81549073ffffffffffffffffffffffffffffffffffffffff02191690556008820160009055600982016000905550503373ffffffffffffffffffffffffffffffffffffffff167fedf3f52411368a1d968a3c58bc98777991f36a53f8f94d17bebd279dee25092883426040516103e3929190612f97565b60405180910390a25050565b6103f761216c565b6001826040516104079190612e07565b90815260200160405180910390206040518060e001604052908160008201805461043090612ff6565b80601f016020809104026020016040519081016040528092919081815260200182805461045c90612ff6565b80156104a95780601f1061047e576101008083540402835291602001916104a9565b820191906000526020600020905b81548152906001019060200180831161048c57829003601f168201915b5050505050815260200160018201604051806101400160405290816000820180546104d390612ff6565b80601f01602080910402602001604051908101604052809291908181526020018280546104ff90612ff6565b801561054c5780601f106105215761010080835404028352916020019161054c565b820191906000526020600020905b81548152906001019060200180831161052f57829003601f168201915b5050505050815260200160018201805461056590612ff6565b80601f016020809104026020016040519081016040528092919081815260200182805461059190612ff6565b80156105de5780601f106105b3576101008083540402835291602001916105de565b820191906000526020600020905b8154815290600101906020018083116105c157829003601f168201915b505050505081526020016002820180546105f790612ff6565b80601f016020809104026020016040519081016040528092919081815260200182805461062390612ff6565b80156106705780601f1061064557610100808354040283529160200191610670565b820191906000526020600020905b81548152906001019060200180831161065357829003601f168201915b5050505050815260200160038201805461068990612ff6565b80601f01602080910402602001604051908101604052809291908181526020018280546106b590612ff6565b80156107025780601f106106d757610100808354040283529160200191610702565b820191906000526020600020905b8154815290600101906020018083116106e557829003601f168201915b5050505050815260200160048201805461071b90612ff6565b80601f016020809104026020016040519081016040528092919081815260200182805461074790612ff6565b80156107945780601f1061076957610100808354040283529160200191610794565b820191906000526020600020905b81548152906001019060200180831161077757829003601f168201915b505050505081526020016005820180546107ad90612ff6565b80601f01602080910402602001604051908101604052809291908181526020018280546107d990612ff6565b80156108265780601f106107fb57610100808354040283529160200191610826565b820191906000526020600020905b81548152906001019060200180831161080957829003601f168201915b5050505050815260200160068201805461083f90612ff6565b80601f016020809104026020016040519081016040528092919081815260200182805461086b90612ff6565b80156108b85780601f1061088d576101008083540402835291602001916108b8565b820191906000526020600020905b81548152906001019060200180831161089b57829003601f168201915b505050505081526020016007820160009054906101000a900473ffffffffffffffffffffffffffffffffffffffff1673ffffffffffffffffffffffffffffffffffffffff1673ffffffffffffffffffffffffffffffffffffffff168152602001600882015481526020016009820154815250508152602001600b8201805480602002602001604051908101604052809291908181526020016000905b82821015610a0057838290600052602060002001805461097390612ff6565b80601f016020809104026020016040519081016040528092919081815260200182805461099f90612ff6565b80156109ec5780601f106109c1576101008083540402835291602001916109ec565b820191906000526020600020905b8154815290600101906020018083116109cf57829003601f168201915b505050505081526020019060010190610954565b505050508152602001600c82018054610a1890612ff6565b80601f0160208091040260200160405190810160405280929190818152602001828054610a4490612ff6565b8015610a915780601f10610a6657610100808354040283529160200191610a91565b820191906000526020600020905b815481529060010190602001808311610a7457829003601f168201915b50505050508152602001600d820160009054906101000a900473ffffffffffffffffffffffffffffffffffffffff1673ffffffffffffffffffffffffffffffffffffffff1673ffffffffffffffffffffffffffffffffffffffff168152602001600e8201548152602001600f820154815250509050919050565b610b136121c5565b813373ffffffffffffffffffffffffffffffffffffffff16600082604051610b3b9190612e07565b908152602001604051809103902060070160009054906101000a900473ffffffffffffffffffffffffffffffffffffffff1673ffffffffffffffffffffffffffffffffffffffff1614610bc3576040517f08c379a0000000000000000000000000000000000000000000000000000000008152600401610bba90612e90565b60405180910390fd5b600083511415610c08576040517f08c379a0000000000000000000000000000000000000000000000000000000008152600401610bff90612efc565b60405180910390fd5b610c1183611d69565b610c50576040517f08c379a0000000000000000000000000000000000000000000000000000000008152600401610c4790612f68565b60405180910390fd5b600083604051610c609190612e07565b908152602001604051809103902060405180610140016040529081600082018054610c8a90612ff6565b80601f0160208091040260200160405190810160405280929190818152602001828054610cb690612ff6565b8015610d035780601f10610cd857610100808354040283529160200191610d03565b820191906000526020600020905b815481529060010190602001808311610ce657829003601f168201915b50505050508152602001600182018054610d1c90612ff6565b80601f0160208091040260200160405190810160405280929190818152602001828054610d4890612ff6565b8015610d955780601f10610d6a57610100808354040283529160200191610d95565b820191906000526020600020905b815481529060010190602001808311610d7857829003601f168201915b50505050508152602001600282018054610dae90612ff6565b80601f0160208091040260200160405190810160405280929190818152602001828054610dda90612ff6565b8015610e275780601f10610dfc57610100808354040283529160200191610e27565b820191906000526020600020905b815481529060010190602001808311610e0a57829003601f168201915b50505050508152602001600382018054610e4090612ff6565b80601f0160208091040260200160405190810160405280929190818152602001828054610e6c90612ff6565b8015610eb95780601f10610e8e57610100808354040283529160200191610eb9565b820191906000526020600020905b815481529060010190602001808311610e9c57829003601f168201915b50505050508152602001600482018054610ed290612ff6565b80601f0160208091040260200160405190810160405280929190818152602001828054610efe90612ff6565b8015610f4b5780601f10610f2057610100808354040283529160200191610f4b565b820191906000526020600020905b815481529060010190602001808311610f2e57829003601f168201915b50505050508152602001600582018054610f6490612ff6565b80601f0160208091040260200160405190810160405280929190818152602001828054610f9090612ff6565b8015610fdd5780601f10610fb257610100808354040283529160200191610fdd565b820191906000526020600020905b815481529060010190602001808311610fc057829003601f168201915b50505050508152602001600682018054610ff690612ff6565b80601f016020809104026020016040519081016040528092919081815260200182805461102290612ff6565b801561106f5780601f106110445761010080835404028352916020019161106f565b820191906000526020600020905b81548152906001019060200180831161105257829003601f168201915b505050505081526020016007820160009054906101000a900473ffffffffffffffffffffffffffffffffffffffff1673ffffffffffffffffffffffffffffffffffffffff1673ffffffffffffffffffffffffffffffffffffffff16815260200160088201548152602001600982015481525050915050919050565b6110f385611d69565b611132576040517f08c379a000000000000000000000000000000000000000000000000000000000815260040161112990612f68565b60405180910390fd5b6040518060e001604052808581526020016000876040516111539190612e07565b90815260200160405180910390206040518061014001604052908160008201805461117d90612ff6565b80601f01602080910402602001604051908101604052809291908181526020018280546111a990612ff6565b80156111f65780601f106111cb576101008083540402835291602001916111f6565b820191906000526020600020905b8154815290600101906020018083116111d957829003601f168201915b5050505050815260200160018201805461120f90612ff6565b80601f016020809104026020016040519081016040528092919081815260200182805461123b90612ff6565b80156112885780601f1061125d57610100808354040283529160200191611288565b820191906000526020600020905b81548152906001019060200180831161126b57829003601f168201915b505050505081526020016002820180546112a190612ff6565b80601f01602080910402602001604051908101604052809291908181526020018280546112cd90612ff6565b801561131a5780601f106112ef5761010080835404028352916020019161131a565b820191906000526020600020905b8154815290600101906020018083116112fd57829003601f168201915b5050505050815260200160038201805461133390612ff6565b80601f016020809104026020016040519081016040528092919081815260200182805461135f90612ff6565b80156113ac5780601f10611381576101008083540402835291602001916113ac565b820191906000526020600020905b81548152906001019060200180831161138f57829003601f168201915b505050505081526020016004820180546113c590612ff6565b80601f01602080910402602001604051908101604052809291908181526020018280546113f190612ff6565b801561143e5780601f106114135761010080835404028352916020019161143e565b820191906000526020600020905b81548152906001019060200180831161142157829003601f168201915b5050505050815260200160058201805461145790612ff6565b80601f016020809104026020016040519081016040528092919081815260200182805461148390612ff6565b80156114d05780601f106114a5576101008083540402835291602001916114d0565b820191906000526020600020905b8154815290600101906020018083116114b357829003601f168201915b505050505081526020016006820180546114e990612ff6565b80601f016020809104026020016040519081016040528092919081815260200182805461151590612ff6565b80156115625780601f1061153757610100808354040283529160200191611562565b820191906000526020600020905b81548152906001019060200180831161154557829003601f168201915b505050505081526020016007820160009054906101000a900473ffffffffffffffffffffffffffffffffffffffff1673ffffffffffffffffffffffffffffffffffffffff1673ffffffffffffffffffffffffffffffffffffffff1681526020016008820154815260200160098201548152505081526020018481526020018381526020013373ffffffffffffffffffffffffffffffffffffffff168152602001824261160e9190613057565b8152602001428152506001856040516116279190612e07565b9081526020016040518091039020600082015181600001908051906020019061165192919061222e565b50602082015181600101600082015181600001908051906020019061167792919061222e565b50602082015181600101908051906020019061169492919061222e565b5060408201518160020190805190602001906116b192919061222e565b5060608201518160030190805190602001906116ce92919061222e565b5060808201518160040190805190602001906116eb92919061222e565b5060a082015181600501908051906020019061170892919061222e565b5060c082015181600601908051906020019061172592919061222e565b5060e08201518160070160006101000a81548173ffffffffffffffffffffffffffffffffffffffff021916908373ffffffffffffffffffffffffffffffffffffffff160217905550610100820151816008015561012082015181600901555050604082015181600b0190805190602001906117a19291906122b4565b50606082015181600c0190805190602001906117be92919061222e565b50608082015181600d0160006101000a81548173ffffffffffffffffffffffffffffffffffffffff021916908373ffffffffffffffffffffffffffffffffffffffff16021790555060a082015181600e015560c082015181600f01559050505050505050565b61182d87611d69565b1561186d576040517f08c379a0000000000000000000000000000000000000000000000000000000008152600401611864906130f9565b60405180910390fd5b6040518061014001604052808881526020018781526020018681526020018581526020018481526020018381526020018281526020013373ffffffffffffffffffffffffffffffffffffffff168152602001428152602001428152506000886040516118d99190612e07565b9081526020016040518091039020600082015181600001908051906020019061190392919061222e565b50602082015181600101908051906020019061192092919061222e565b50604082015181600201908051906020019061193d92919061222e565b50606082015181600301908051906020019061195a92919061222e565b50608082015181600401908051906020019061197792919061222e565b5060a082015181600501908051906020019061199492919061222e565b5060c08201518160060190805190602001906119b192919061222e565b5060e08201518160070160006101000a81548173ffffffffffffffffffffffffffffffffffffffff021916908373ffffffffffffffffffffffffffffffffffffffff160217905550610100820151816008015561012082015181600901559050503373ffffffffffffffffffffffffffffffffffffffff167fd8457cc412078f830b2b77fdbee551af989146f8ac4114c273de2fba3e356b8f8842604051611a5a929190612f97565b60405180910390a250505050505050565b6060600082511415611ab2576040517f08c379a0000000000000000000000000000000000000000000000000000000008152600401611aa990612efc565b60405180910390fd5b611abb82611d69565b611afa576040517f08c379a0000000000000000000000000000000000000000000000000000000008152600401611af190612f68565b60405180910390fd5b6000611d22600084604051611b0f9190612e07565b9081526020016040518091039020600001600085604051611b309190612e07565b9081526020016040518091039020600201600086604051611b519190612e07565b9081526020016040518091039020600301600087604051611b729190612e07565b9081526020016040518091039020600401600088604051611b939190612e07565b9081526020016040518091039020600501600089604051611bb49190612e07565b908152602001604051809103902060060173__Strings_______________________________6371aad10d60008c604051611bef9190612e07565b908152602001604051809103902060070160009054906101000a900473ffffffffffffffffffffffffffffffffffffffff16604051602001611c319190613161565b6040516020818303038152906040526040518263ffffffff1660e01b8152600401611c5c91906131d1565b600060405180830381865af4158015611c79573d6000803e3d6000fd5b505050506040513d6000823e3d601f19601f82011682018060405250810190611ca29190613263565b611ccc60008c604051611cb59190612e07565b908152602001604051809103902060080154611e33565b611cf660008d604051611cdf9190612e07565b908152602001604051809103902060090154611e33565b604051602001611d0e999897969594939291906136d0565b604051602081830303815290604052611f94565b905080604051602001611d359190612e07565b604051602081830303815290604052915050919050565b600081421115611d5f5760019050611d64565b600090505b919050565b60008082511415611daf576040517f08c379a0000000000000000000000000000000000000000000000000000000008152600401611da690612efc565b60405180910390fd5b81604051602001611dc09190612e07565b60405160208183030381529060405280519060200120600083604051611de69190612e07565b9081526020016040518091039020600001604051602001611e079190613815565b6040516020818303038152906040528051906020012014611e29576000611e2c565b60015b9050919050565b60606000821415611e7b576040518060400160405280600181526020017f30000000000000000000000000000000000000000000000000000000000000008152509050611f8f565b600082905060005b60008214611ead578080611e969061382c565b915050600a82611ea691906138a4565b9150611e83565b60008167ffffffffffffffff811115611ec957611ec8612384565b5b6040519080825280601f01601f191660200182016040528015611efb5781602001600182028036833780820191505090505b5090505b60008514611f8857600182611f1491906138d5565b9150600a85611f239190613909565b6030611f2f9190613057565b60f81b818381518110611f4557611f4461393a565b5b60200101907effffffffffffffffffffffffffffffffffffffffffffffffffffffffffffff1916908160001a905350600a85611f8191906138a4565b9450611eff565b8093505050505b919050565b60606000825190506000811415611fbd5760405180602001604052806000815250915050612127565b60006003600283611fce9190613057565b611fd891906138a4565b6004611fe49190613969565b90506000602082611ff59190613057565b67ffffffffffffffff81111561200e5761200d612384565b5b6040519080825280601f01601f1916602001820160405280156120405781602001600182028036833780820191505090505b50905060006040518060600160405280604081526020016139c4604091399050600181016020830160005b868110156120e45760038101905062ffffff818a015116603f8160121c168401518060081b905060ff603f83600c1c1686015116810190508060081b905060ff603f8360061c1686015116810190508060081b905060ff603f831686015116810190508060e01b9050808452600484019350505061206b565b5060038606600181146120fe576002811461210e57612119565b613d3d60f01b6002830352612119565b603d60f81b60018303525b508484525050819450505050505b919050565b50805461213890612ff6565b6000825580601f1061214a5750612169565b601f0160209004906000526020600020908101906121689190612314565b5b50565b6040518060e00160405280606081526020016121866121c5565b81526020016060815260200160608152602001600073ffffffffffffffffffffffffffffffffffffffff16815260200160008152602001600081525090565b60405180610140016040528060608152602001606081526020016060815260200160608152602001606081526020016060815260200160608152602001600073ffffffffffffffffffffffffffffffffffffffff16815260200160008152602001600081525090565b82805461223a90612ff6565b90600052602060002090601f01602090048101928261225c57600085556122a3565b82601f1061227557805160ff19168380011785556122a3565b828001600101855582156122a3579182015b828111156122a2578251825591602001919060010190612287565b5b5090506122b09190612314565b5090565b828054828255906000526020600020908101928215612303579160200282015b828111156123025782518290805190602001906122f292919061222e565b50916020019190600101906122d4565b5b5090506123109190612331565b5090565b5b8082111561232d576000816000905550600101612315565b5090565b5b808211156123515760008181612348919061212c565b50600101612332565b5090565b6000604051905090565b600080fd5b600080fd5b600080fd5b600080fd5b6000601f19601f8301169050919050565b7f4e487b7100000000000000000000000000000000000000000000000000000000600052604160045260246000fd5b6123bc82612373565b810181811067ffffffffffffffff821117156123db576123da612384565b5b80604052505050565b60006123ee612355565b90506123fa82826123b3565b919050565b600067ffffffffffffffff82111561241a57612419612384565b5b61242382612373565b9050602081019050919050565b82818337600083830152505050565b600061245261244d846123ff565b6123e4565b90508281526020810184848401111561246e5761246d61236e565b5b612479848285612430565b509392505050565b600082601f83011261249657612495612369565b5b81356124a684826020860161243f565b91505092915050565b6000602082840312156124c5576124c461235f565b5b600082013567ffffffffffffffff8111156124e3576124e2612364565b5b6124ef84828501612481565b91505092915050565b600081519050919050565b600082825260208201905092915050565b60005b83811015612532578082015181840152602081019050612517565b83811115612541576000848401525b50505050565b6000612552826124f8565b61255c8185612503565b935061256c818560208601612514565b61257581612373565b840191505092915050565b600073ffffffffffffffffffffffffffffffffffffffff82169050919050565b60006125ab82612580565b9050919050565b6125bb816125a0565b82525050565b6000819050919050565b6125d4816125c1565b82525050565b60006101408301600083015184820360008601526125f88282612547565b915050602083015184820360208601526126128282612547565b9150506040830151848203604086015261262c8282612547565b915050606083015184820360608601526126468282612547565b915050608083015184820360808601526126608282612547565b91505060a083015184820360a086015261267a8282612547565b91505060c083015184820360c08601526126948282612547565b91505060e08301516126a960e08601826125b2565b506101008301516126be6101008601826125cb565b506101208301516126d36101208601826125cb565b508091505092915050565b600081519050919050565b600082825260208201905092915050565b6000819050602082019050919050565b60006127168383612547565b905092915050565b6000602082019050919050565b6000612736826126de565b61274081856126e9565b935083602082028501612752856126fa565b8060005b8581101561278e578484038952815161276f858261270a565b945061277a8361271e565b925060208a01995050600181019050612756565b50829750879550505050505092915050565b600060e08301600083015184820360008601526127bd8282612547565b915050602083015184820360208601526127d782826125da565b915050604083015184820360408601526127f1828261272b565b9150506060830151848203606086015261280b8282612547565b915050608083015161282060808601826125b2565b5060a083015161283360a08601826125cb565b5060c083015161284660c08601826125cb565b508091505092915050565b6000602082019050818103600083015261286b81846127a0565b905092915050565b60006101408301600083015184820360008601526128918282612547565b915050602083015184820360208601526128ab8282612547565b915050604083015184820360408601526128c58282612547565b915050606083015184820360608601526128df8282612547565b915050608083015184820360808601526128f98282612547565b91505060a083015184820360a08601526129138282612547565b91505060c083015184820360c086015261292d8282612547565b91505060e083015161294260e08601826125b2565b506101008301516129576101008601826125cb565b5061012083015161296c6101208601826125cb565b508091505092915050565b600060208201905081810360008301526129918184612873565b905092915050565b600067ffffffffffffffff8211156129b4576129b3612384565b5b602082029050602081019050919050565b600080fd5b60006129dd6129d884612999565b6123e4565b90508083825260208201905060208402830185811115612a00576129ff6129c5565b5b835b81811015612a4757803567ffffffffffffffff811115612a2557612a24612369565b5b808601612a328982612481565b85526020850194505050602081019050612a02565b5050509392505050565b600082601f830112612a6657612a65612369565b5b8135612a768482602086016129ca565b91505092915050565b612a88816125c1565b8114612a9357600080fd5b50565b600081359050612aa581612a7f565b92915050565b600080600080600060a08688031215612ac757612ac661235f565b5b600086013567ffffffffffffffff811115612ae557612ae4612364565b5b612af188828901612481565b955050602086013567ffffffffffffffff811115612b1257612b11612364565b5b612b1e88828901612481565b945050604086013567ffffffffffffffff811115612b3f57612b3e612364565b5b612b4b88828901612a51565b935050606086013567ffffffffffffffff811115612b6c57612b6b612364565b5b612b7888828901612481565b9250506080612b8988828901612a96565b9150509295509295909350565b600080600080600080600060e0888a031215612bb557612bb461235f565b5b600088013567ffffffffffffffff811115612bd357612bd2612364565b5b612bdf8a828b01612481565b975050602088013567ffffffffffffffff811115612c0057612bff612364565b5b612c0c8a828b01612481565b965050604088013567ffffffffffffffff811115612c2d57612c2c612364565b5b612c398a828b01612481565b955050606088013567ffffffffffffffff811115612c5a57612c59612364565b5b612c668a828b01612481565b945050608088013567ffffffffffffffff811115612c8757612c86612364565b5b612c938a828b01612481565b93505060a088013567ffffffffffffffff811115612cb457612cb3612364565b5b612cc08a828b01612481565b92505060c088013567ffffffffffffffff811115612ce157612ce0612364565b5b612ced8a828b01612481565b91505092959891949750929550565b600082825260208201905092915050565b6000612d18826124f8565b612d228185612cfc565b9350612d32818560208601612514565b612d3b81612373565b840191505092915050565b60006020820190508181036000830152612d608184612d0d565b905092915050565b600060208284031215612d7e57612d7d61235f565b5b6000612d8c84828501612a96565b91505092915050565b60008115159050919050565b612daa81612d95565b82525050565b6000602082019050612dc56000830184612da1565b92915050565b600081905092915050565b6000612de1826124f8565b612deb8185612dcb565b9350612dfb818560208601612514565b80840191505092915050565b6000612e138284612dd6565b915081905092915050565b7f596f7520617265206e6f7420617574686f72697a656420746f2061636365737360008201527f207468697320636c69656e742e00000000000000000000000000000000000000602082015250565b6000612e7a602d83612cfc565b9150612e8582612e1e565b604082019050919050565b60006020820190508181036000830152612ea981612e6d565b9050919050565b7f436c69656e7420696420697320656d7074792021000000000000000000000000600082015250565b6000612ee6601483612cfc565b9150612ef182612eb0565b602082019050919050565b60006020820190508181036000830152612f1581612ed9565b9050919050565b7f496e76616c696420636c69656e74206964202100000000000000000000000000600082015250565b6000612f52601383612cfc565b9150612f5d82612f1c565b602082019050919050565b60006020820190508181036000830152612f8181612f45565b9050919050565b612f91816125c1565b82525050565b60006040820190508181036000830152612fb18185612d0d565b9050612fc06020830184612f88565b9392505050565b7f4e487b7100000000000000000000000000000000000000000000000000000000600052602260045260246000fd5b6000600282049050600182168061300e57607f821691505b6020821081141561302257613021612fc7565b5b50919050565b7f4e487b7100000000000000000000000000000000000000000000000000000000600052601160045260246000fd5b6000613062826125c1565b915061306d836125c1565b9250827fffffffffffffffffffffffffffffffffffffffffffffffffffffffffffffffff038211156130a2576130a1613028565b5b828201905092915050565b7f436c69656e7420616c7265616479206578697374732100000000000000000000600082015250565b60006130e3601683612cfc565b91506130ee826130ad565b602082019050919050565b60006020820190508181036000830152613112816130d6565b9050919050565b60008160601b9050919050565b600061313182613119565b9050919050565b600061314382613126565b9050919050565b61315b613156826125a0565b613138565b82525050565b600061316d828461314a565b60148201915081905092915050565b600081519050919050565b600082825260208201905092915050565b60006131a38261317c565b6131ad8185613187565b93506131bd818560208601612514565b6131c681612373565b840191505092915050565b600060208201905081810360008301526131eb8184613198565b905092915050565b6000613206613201846123ff565b6123e4565b9050828152602081018484840111156132225761322161236e565b5b61322d848285612514565b509392505050565b600082601f83011261324a57613249612369565b5b815161325a8482602086016131f3565b91505092915050565b6000602082840312156132795761327861235f565b5b600082015167ffffffffffffffff81111561329757613296612364565b5b6132a384828501613235565b91505092915050565b7f7b22636c69656e745f6964223a20220000000000000000000000000000000000600082015250565b60006132e2600f83612dcb565b91506132ed826132ac565b600f82019050919050565b60008190508160005260206000209050919050565b6000815461331a81612ff6565b6133248186612dcb565b9450600182166000811461333f576001811461335057613383565b60ff19831686528186019350613383565b613359856132f8565b60005b8381101561337b5781548189015260018201915060208101905061335c565b838801955050505b50505092915050565b7f222c000000000000000000000000000000000000000000000000000000000000600082015250565b60006133c2600283612dcb565b91506133cd8261338c565b600282019050919050565b7f22636c69656e745f6e616d65223a202200000000000000000000000000000000600082015250565b600061340e601083612dcb565b9150613419826133d8565b601082019050919050565b7f22636c69656e745f6c6f676f223a202200000000000000000000000000000000600082015250565b600061345a601083612dcb565b915061346582613424565b601082019050919050565b7f22636c69656e745f6465736372697074696f6e223a2022000000000000000000600082015250565b60006134a6601783612dcb565b91506134b182613470565b601782019050919050565b7f22636c69656e745f686f6d6570616765223a2022000000000000000000000000600082015250565b60006134f2601483612dcb565b91506134fd826134bc565b601482019050919050565b7f2272656469726563745f757269223a2022000000000000000000000000000000600082015250565b600061353e601183612dcb565b915061354982613508565b601182019050919050565b7f22636c69656e745f6f776e6572223a2022000000000000000000000000000000600082015250565b600061358a601183612dcb565b915061359582613554565b601182019050919050565b7f227570646174655f64617465223a200000000000000000000000000000000000600082015250565b60006135d6600f83612dcb565b91506135e1826135a0565b600f82019050919050565b7f2c00000000000000000000000000000000000000000000000000000000000000600082015250565b6000613622600183612dcb565b915061362d826135ec565b600182019050919050565b7f226372656174655f64617465223a200000000000000000000000000000000000600082015250565b600061366e600f83612dcb565b915061367982613638565b600f82019050919050565b7f7d00000000000000000000000000000000000000000000000000000000000000600082015250565b60006136ba600183612dcb565b91506136c582613684565b600182019050919050565b60006136db826132d5565b91506136e7828c61330d565b91506136f2826133b5565b91506136fd82613401565b9150613709828b61330d565b9150613714826133b5565b915061371f8261344d565b915061372b828a61330d565b9150613736826133b5565b915061374182613499565b915061374d828961330d565b9150613758826133b5565b9150613763826134e5565b915061376f828861330d565b915061377a826133b5565b915061378582613531565b9150613791828761330d565b915061379c826133b5565b91506137a78261357d565b91506137b38286612dd6565b91506137be826133b5565b91506137c9826135c9565b91506137d58285612dd6565b91506137e082613615565b91506137eb82613661565b91506137f78284612dd6565b9150613802826136ad565b91508190509a9950505050505050505050565b6000613821828461330d565b915081905092915050565b6000613837826125c1565b91507fffffffffffffffffffffffffffffffffffffffffffffffffffffffffffffffff82141561386a57613869613028565b5b600182019050919050565b7f4e487b7100000000000000000000000000000000000000000000000000000000600052601260045260246000fd5b60006138af826125c1565b91506138ba836125c1565b9250826138ca576138c9613875565b5b828204905092915050565b60006138e0826125c1565b91506138eb836125c1565b9250828210156138fe576138fd613028565b5b828203905092915050565b6000613914826125c1565b915061391f836125c1565b92508261392f5761392e613875565b5b828206905092915050565b7f4e487b7100000000000000000000000000000000000000000000000000000000600052603260045260246000fd5b6000613974826125c1565b915061397f836125c1565b9250817fffffffffffffffffffffffffffffffffffffffffffffffffffffffffffffffff04831182151516156139b8576139b7613028565b5b82820290509291505056fe4142434445464748494a4b4c4d4e4f505152535455565758595a6162636465666768696a6b6c6d6e6f707172737475767778797a303132333435363738392b2fa2646970667358221220e4c42074925ef2de577921c02db2d6007489e1db6667718975171c95b53a614a64736f6c634300080b0033",
  "immutableReferences": {},
  "source": "// SPDX-License-Identifier: MIT\npragma solidity ^0.8.11;\n\n// We need to import the helper functions from the contract that we copy/pasted.\nimport {Base64} from \"./libraries/Base64.sol\";\nimport {Strings} from \"./libraries/Strings.sol\";\n\ncontract IAM {\n    modifier clientOwner(string memory _client_id) {\n        require(\n            clients[_client_id].client_owner == msg.sender,\n            \"You are not authorized to access this client.\"\n        );\n        _;\n    }\n\n    struct Clients {\n        string client_id; //clientid lowercase clientname\n        string client_secret;\n        string client_name; // unique\n        string client_logo; // svg , png , jpeg encode Base64 to string\n        string client_description;\n        string client_homepage;\n        string redirect_uri;\n        address client_owner;\n        uint256 update_date;\n        uint256 create_date;\n    }\n\n    struct Authorizations {\n        string authorization_code;\n        Clients client;\n        string[] scopes;\n        string redirect_uri;\n        address client_user;\n        uint256 expires_at;\n        uint256 create_date;\n    }\n\n    struct Tokens {\n        Authorizations authorization;\n        string access_token;\n        uint256 access_token_expires_at;\n        string refresh_token;\n        uint256 refresh_token_expires_at;\n        Clients client;\n        address client_user;\n        uint256 create_date;\n    }\n\n    mapping(string => Clients) clients;\n    mapping(string => Authorizations) authorizations;\n    mapping(string => Tokens) tokens;\n\n    event AddClient(\n        address indexed _client_owner,\n        string _client_id,\n        uint256 _create_date\n    );\n\n    event DelClient(\n        address indexed _client_owner,\n        string _client_id,\n        uint256 _del_date\n    );\n\n    event EditClient(\n        string _client_id,\n        address _client_owner,\n        uint256 _update_date\n    );\n\n    event grantAuthorize(\n        string _client_id,\n        address _client_user,\n        uint256 _create_date\n    );\n\n    function createAuthorize(\n        string memory _client_id,\n        string memory _authorization_code,\n        string[] memory _scopes,\n        string memory _redirect_uri,\n        uint256 _expiration_period // unit seconds\n    ) public {\n        require(isClient(_client_id), \"Invalid client id !\");\n        authorizations[_authorization_code] = Authorizations({\n            authorization_code: _authorization_code,\n            client: clients[_client_id],\n            scopes: _scopes,\n            redirect_uri: _redirect_uri,\n            client_user: msg.sender,\n            expires_at: block.timestamp + _expiration_period, // create expire time\n            create_date: block.timestamp\n        });\n    }\n\n    function getGrantAuthorize(string memory _authorization_code)\n        public\n        view\n        returns (Authorizations memory)\n    {\n        return authorizations[_authorization_code];\n    }\n\n    function createClient(\n        string memory _client_id,\n        string memory _client_secret,\n        string memory _client_name,\n        string memory _client_logo,\n        string memory _client_description,\n        string memory _client_homepage,\n        string memory _redirect_uri\n    ) public {\n        require(!isClient(_client_id), \"Client already exists!\");\n        clients[_client_id] = Clients({\n            client_id: _client_id,\n            client_name: _client_name,\n            client_secret: _client_secret,\n            client_logo: _client_logo,\n            client_description: _client_description,\n            client_homepage: _client_homepage,\n            redirect_uri: _redirect_uri,\n            client_owner: msg.sender,\n            update_date: block.timestamp,\n            create_date: block.timestamp\n        });\n        emit AddClient(msg.sender, _client_id, block.timestamp);\n    }\n\n    function deleteClient(string memory _client_id)\n        public\n        clientOwner(_client_id)\n    {\n        require(bytes(_client_id).length != 0, \"Client id is empty !\");\n        require(isClient(_client_id), \"Invalid client id !\");\n\n        delete clients[_client_id];\n        emit DelClient(msg.sender, _client_id, block.timestamp);\n    }\n\n    function getClientByOwner(string memory _client_id)\n        public\n        view\n        clientOwner(_client_id)\n        returns (Clients memory)\n    {\n        require(bytes(_client_id).length != 0, \"Client id is empty !\");\n        require(isClient(_client_id), \"Invalid client id !\");\n        return clients[_client_id];\n    }\n\n    function getClientPublicJson(string memory _client_id)\n        public\n        view\n        returns (string memory)\n    {\n        require(bytes(_client_id).length != 0, \"Client id is empty !\");\n        require(isClient(_client_id), \"Invalid client id !\");\n        string memory client = Base64.encode(\n            bytes(\n                string(\n                    abi.encodePacked(\n                        '{\"client_id\": \"',\n                        clients[_client_id].client_id,\n                        '\",',\n                        '\"client_name\": \"',\n                        clients[_client_id].client_name,\n                        '\",',\n                        '\"client_logo\": \"',\n                        clients[_client_id].client_logo,\n                        '\",',\n                        '\"client_description\": \"',\n                        clients[_client_id].client_description,\n                        '\",',\n                        '\"client_homepage\": \"',\n                        clients[_client_id].client_homepage,\n                        '\",',\n                        '\"redirect_uri\": \"',\n                        clients[_client_id].redirect_uri,\n                        '\",',\n                        '\"client_owner\": \"',\n                        Strings.toString(\n                            abi.encodePacked(clients[_client_id].client_owner)\n                        ),\n                        '\",',\n                        '\"update_date\": ',\n                        Strings.uint256ToString(\n                            clients[_client_id].update_date\n                        ),\n                        \",\",\n                        '\"create_date\": ',\n                        Strings.uint256ToString(\n                            clients[_client_id].create_date\n                        ),\n                        \"}\"\n                    )\n                )\n            )\n        );\n        return string(abi.encodePacked(client));\n    }\n\n    function isExpire(uint256 _expires_at) public view returns (bool) {\n        if (block.timestamp > _expires_at) {\n            return true;\n        }\n        return false;\n    }\n\n    function isClient(string memory _client_id) private view returns (bool) {\n        require(bytes(_client_id).length != 0, \"Client id is empty !\");\n        return\n            keccak256(abi.encodePacked(clients[_client_id].client_id)) ==\n                keccak256(abi.encodePacked(_client_id))\n                ? true\n                : false;\n    }\n}\n",
  "sourcePath": "/Users/kritsanawipankhet/Development/Github/iamblockchain-smartcontract/contracts/IAM.sol",
  "compiler": {
    "name": "solc",
    "version": "0.8.11+commit.d7f03943.Emscripten.clang"
  },
  "schemaVersion": "3.4.6",
  "updatedAt": "2022-04-15T09:44:34.230Z",
  "networkType": "ethereum",
  "devdoc": {
    "kind": "dev",
    "methods": {},
    "version": 1
  },
  "userdoc": {
    "kind": "user",
    "methods": {},
    "version": 1
  }
}