{
  "contractName": "IAM",
  "abi": [
    {
      "anonymous": false,
      "inputs": [
        {
          "indexed": false,
          "internalType": "string",
          "name": "_client_id",
          "type": "string"
        },
        {
          "indexed": false,
          "internalType": "address",
          "name": "_client_owner",
          "type": "address"
        },
        {
          "indexed": false,
          "internalType": "uint256",
          "name": "_create_date",
          "type": "uint256"
        }
      ],
      "name": "AddedClient",
      "type": "event"
    },
    {
      "inputs": [
        {
          "internalType": "string",
          "name": "",
          "type": "string"
        }
      ],
      "name": "clients",
      "outputs": [
        {
          "internalType": "string",
          "name": "client_id",
          "type": "string"
        },
        {
          "internalType": "string",
          "name": "client_secret",
          "type": "string"
        },
        {
          "internalType": "string",
          "name": "client_name",
          "type": "string"
        },
        {
          "internalType": "string",
          "name": "client_logo",
          "type": "string"
        },
        {
          "internalType": "string",
          "name": "client_description",
          "type": "string"
        },
        {
          "internalType": "string",
          "name": "client_homepage",
          "type": "string"
        },
        {
          "internalType": "string",
          "name": "redirect_uri",
          "type": "string"
        },
        {
          "internalType": "address",
          "name": "client_owner",
          "type": "address"
        },
        {
          "internalType": "uint256",
          "name": "update_date",
          "type": "uint256"
        },
        {
          "internalType": "uint256",
          "name": "create_date",
          "type": "uint256"
        }
      ],
      "stateMutability": "view",
      "type": "function",
      "constant": true
    },
    {
      "inputs": [
        {
          "internalType": "string",
          "name": "_client_id",
          "type": "string"
        },
        {
          "internalType": "string",
          "name": "_client_secret",
          "type": "string"
        },
        {
          "internalType": "string",
          "name": "_client_name",
          "type": "string"
        },
        {
          "internalType": "string",
          "name": "_client_logo",
          "type": "string"
        },
        {
          "internalType": "string",
          "name": "_client_description",
          "type": "string"
        },
        {
          "internalType": "string",
          "name": "_client_homepage",
          "type": "string"
        },
        {
          "internalType": "string",
          "name": "_redirect_uri",
          "type": "string"
        }
      ],
      "name": "createClient",
      "outputs": [],
      "stateMutability": "nonpayable",
      "type": "function"
    },
    {
      "inputs": [
        {
          "internalType": "string",
          "name": "_client_id",
          "type": "string"
        }
      ],
      "name": "deleteClient",
      "outputs": [],
      "stateMutability": "nonpayable",
      "type": "function"
    },
    {
      "inputs": [
        {
          "internalType": "string",
          "name": "_client_id",
          "type": "string"
        }
      ],
      "name": "getClientPublicJson",
      "outputs": [
        {
          "internalType": "string",
          "name": "",
          "type": "string"
        }
      ],
      "stateMutability": "view",
      "type": "function",
      "constant": true
    }
  ],
  "bytecode": "0x608060405234801561001057600080fd5b5061223d806100206000396000f3fe608060405234801561001057600080fd5b506004361061004c5760003560e01c8063184183db1461005157806320ba1e9f1461006d578063ba920db8146100a6578063da882fbb146100c2575b600080fd5b61006b60048036038101906100669190611250565b6100f2565b005b61008760048036038101906100829190611250565b6102fb565b60405161009d9a9998979695949392919061137b565b60405180910390f35b6100c060048036038101906100bb9190611448565b61073d565b005b6100dc60048036038101906100d79190611250565b61096f565b6040516100e991906115ae565b60405180910390f35b803373ffffffffffffffffffffffffffffffffffffffff1660008260405161011a919061160c565b908152602001604051809103902060070160009054906101000a900473ffffffffffffffffffffffffffffffffffffffff1673ffffffffffffffffffffffffffffffffffffffff16146101a2576040517f08c379a000000000000000000000000000000000000000000000000000000000815260040161019990611695565b60405180910390fd5b6000825114156101e7576040517f08c379a00000000000000000000000000000000000000000000000000000000081526004016101de90611701565b60405180910390fd5b6101f082610c50565b61022f576040517f08c379a00000000000000000000000000000000000000000000000000000000081526004016102269061176d565b60405180910390fd5b60008260405161023f919061160c565b90815260200160405180910390206000808201600061025e9190611013565b60018201600061026e9190611013565b60028201600061027e9190611013565b60038201600061028e9190611013565b60048201600061029e9190611013565b6005820160006102ae9190611013565b6006820160006102be9190611013565b6007820160006101000a81549073ffffffffffffffffffffffffffffffffffffffff02191690556008820160009055600982016000905550505050565b600081805160208101820180518482526020830160208501208183528095505050505050600091509050806000018054610334906117bc565b80601f0160208091040260200160405190810160405280929190818152602001828054610360906117bc565b80156103ad5780601f10610382576101008083540402835291602001916103ad565b820191906000526020600020905b81548152906001019060200180831161039057829003601f168201915b5050505050908060010180546103c2906117bc565b80601f01602080910402602001604051908101604052809291908181526020018280546103ee906117bc565b801561043b5780601f106104105761010080835404028352916020019161043b565b820191906000526020600020905b81548152906001019060200180831161041e57829003601f168201915b505050505090806002018054610450906117bc565b80601f016020809104026020016040519081016040528092919081815260200182805461047c906117bc565b80156104c95780601f1061049e576101008083540402835291602001916104c9565b820191906000526020600020905b8154815290600101906020018083116104ac57829003601f168201915b5050505050908060030180546104de906117bc565b80601f016020809104026020016040519081016040528092919081815260200182805461050a906117bc565b80156105575780601f1061052c57610100808354040283529160200191610557565b820191906000526020600020905b81548152906001019060200180831161053a57829003601f168201915b50505050509080600401805461056c906117bc565b80601f0160208091040260200160405190810160405280929190818152602001828054610598906117bc565b80156105e55780601f106105ba576101008083540402835291602001916105e5565b820191906000526020600020905b8154815290600101906020018083116105c857829003601f168201915b5050505050908060050180546105fa906117bc565b80601f0160208091040260200160405190810160405280929190818152602001828054610626906117bc565b80156106735780601f1061064857610100808354040283529160200191610673565b820191906000526020600020905b81548152906001019060200180831161065657829003601f168201915b505050505090806006018054610688906117bc565b80601f01602080910402602001604051908101604052809291908181526020018280546106b4906117bc565b80156107015780601f106106d657610100808354040283529160200191610701565b820191906000526020600020905b8154815290600101906020018083116106e457829003601f168201915b5050505050908060070160009054906101000a900473ffffffffffffffffffffffffffffffffffffffff1690806008015490806009015490508a565b61074687610c50565b15610786576040517f08c379a000000000000000000000000000000000000000000000000000000000815260040161077d9061183a565b60405180910390fd5b6040518061014001604052808881526020018781526020018681526020018581526020018481526020018381526020018281526020013373ffffffffffffffffffffffffffffffffffffffff168152602001428152602001428152506000886040516107f2919061160c565b9081526020016040518091039020600082015181600001908051906020019061081c929190611053565b506020820151816001019080519060200190610839929190611053565b506040820151816002019080519060200190610856929190611053565b506060820151816003019080519060200190610873929190611053565b506080820151816004019080519060200190610890929190611053565b5060a08201518160050190805190602001906108ad929190611053565b5060c08201518160060190805190602001906108ca929190611053565b5060e08201518160070160006101000a81548173ffffffffffffffffffffffffffffffffffffffff021916908373ffffffffffffffffffffffffffffffffffffffff160217905550610100820151816008015561012082015181600901559050507f21b3cf40ed3b2def8fd74f93ebde8b7a5425acf37fd1f60afc0b094c722fa3fe87334260405161095e9392919061185a565b60405180910390a150505050505050565b60606000825114156109b6576040517f08c379a00000000000000000000000000000000000000000000000000000000081526004016109ad90611701565b60405180910390fd5b6109bf82610c50565b6109fe576040517f08c379a00000000000000000000000000000000000000000000000000000000081526004016109f59061176d565b60405180910390fd5b6000610c26600084604051610a13919061160c565b9081526020016040518091039020600001600085604051610a34919061160c565b9081526020016040518091039020600201600086604051610a55919061160c565b9081526020016040518091039020600301600087604051610a76919061160c565b9081526020016040518091039020600401600088604051610a97919061160c565b9081526020016040518091039020600501600089604051610ab8919061160c565b908152602001604051809103902060060173__Strings_______________________________6371aad10d60008c604051610af3919061160c565b908152602001604051809103902060070160009054906101000a900473ffffffffffffffffffffffffffffffffffffffff16604051602001610b3591906118e0565b6040516020818303038152906040526040518263ffffffff1660e01b8152600401610b609190611950565b600060405180830381865af4158015610b7d573d6000803e3d6000fd5b505050506040513d6000823e3d601f19601f82011682018060405250810190610ba691906119e2565b610bd060008c604051610bb9919061160c565b908152602001604051809103902060080154610d1a565b610bfa60008d604051610be3919061160c565b908152602001604051809103902060090154610d1a565b604051602001610c1299989796959493929190611e4f565b604051602081830303815290604052610e7b565b905080604051602001610c39919061160c565b604051602081830303815290604052915050919050565b60008082511415610c96576040517f08c379a0000000000000000000000000000000000000000000000000000000008152600401610c8d90611701565b60405180910390fd5b81604051602001610ca7919061160c565b60405160208183030381529060405280519060200120600083604051610ccd919061160c565b9081526020016040518091039020600001604051602001610cee9190611f94565b6040516020818303038152906040528051906020012014610d10576000610d13565b60015b9050919050565b60606000821415610d62576040518060400160405280600181526020017f30000000000000000000000000000000000000000000000000000000000000008152509050610e76565b600082905060005b60008214610d94578080610d7d90611fda565b915050600a82610d8d9190612052565b9150610d6a565b60008167ffffffffffffffff811115610db057610daf611125565b5b6040519080825280601f01601f191660200182016040528015610de25781602001600182028036833780820191505090505b5090505b60008514610e6f57600182610dfb9190612083565b9150600a85610e0a91906120b7565b6030610e1691906120e8565b60f81b818381518110610e2c57610e2b61213e565b5b60200101907effffffffffffffffffffffffffffffffffffffffffffffffffffffffffffff1916908160001a905350600a85610e689190612052565b9450610de6565b8093505050505b919050565b60606000825190506000811415610ea4576040518060200160405280600081525091505061100e565b60006003600283610eb591906120e8565b610ebf9190612052565b6004610ecb919061216d565b90506000602082610edc91906120e8565b67ffffffffffffffff811115610ef557610ef4611125565b5b6040519080825280601f01601f191660200182016040528015610f275781602001600182028036833780820191505090505b50905060006040518060600160405280604081526020016121c8604091399050600181016020830160005b86811015610fcb5760038101905062ffffff818a015116603f8160121c168401518060081b905060ff603f83600c1c1686015116810190508060081b905060ff603f8360061c1686015116810190508060081b905060ff603f831686015116810190508060e01b90508084526004840193505050610f52565b506003860660018114610fe55760028114610ff557611000565b613d3d60f01b6002830352611000565b603d60f81b60018303525b508484525050819450505050505b919050565b50805461101f906117bc565b6000825580601f106110315750611050565b601f01602090049060005260206000209081019061104f91906110d9565b5b50565b82805461105f906117bc565b90600052602060002090601f01602090048101928261108157600085556110c8565b82601f1061109a57805160ff19168380011785556110c8565b828001600101855582156110c8579182015b828111156110c75782518255916020019190600101906110ac565b5b5090506110d591906110d9565b5090565b5b808211156110f25760008160009055506001016110da565b5090565b6000604051905090565b600080fd5b600080fd5b600080fd5b600080fd5b6000601f19601f8301169050919050565b7f4e487b7100000000000000000000000000000000000000000000000000000000600052604160045260246000fd5b61115d82611114565b810181811067ffffffffffffffff8211171561117c5761117b611125565b5b80604052505050565b600061118f6110f6565b905061119b8282611154565b919050565b600067ffffffffffffffff8211156111bb576111ba611125565b5b6111c482611114565b9050602081019050919050565b82818337600083830152505050565b60006111f36111ee846111a0565b611185565b90508281526020810184848401111561120f5761120e61110f565b5b61121a8482856111d1565b509392505050565b600082601f8301126112375761123661110a565b5b81356112478482602086016111e0565b91505092915050565b60006020828403121561126657611265611100565b5b600082013567ffffffffffffffff81111561128457611283611105565b5b61129084828501611222565b91505092915050565b600081519050919050565b600082825260208201905092915050565b60005b838110156112d35780820151818401526020810190506112b8565b838111156112e2576000848401525b50505050565b60006112f382611299565b6112fd81856112a4565b935061130d8185602086016112b5565b61131681611114565b840191505092915050565b600073ffffffffffffffffffffffffffffffffffffffff82169050919050565b600061134c82611321565b9050919050565b61135c81611341565b82525050565b6000819050919050565b61137581611362565b82525050565b6000610140820190508181036000830152611396818d6112e8565b905081810360208301526113aa818c6112e8565b905081810360408301526113be818b6112e8565b905081810360608301526113d2818a6112e8565b905081810360808301526113e681896112e8565b905081810360a08301526113fa81886112e8565b905081810360c083015261140e81876112e8565b905061141d60e0830186611353565b61142b61010083018561136c565b61143961012083018461136c565b9b9a5050505050505050505050565b600080600080600080600060e0888a03121561146757611466611100565b5b600088013567ffffffffffffffff81111561148557611484611105565b5b6114918a828b01611222565b975050602088013567ffffffffffffffff8111156114b2576114b1611105565b5b6114be8a828b01611222565b965050604088013567ffffffffffffffff8111156114df576114de611105565b5b6114eb8a828b01611222565b955050606088013567ffffffffffffffff81111561150c5761150b611105565b5b6115188a828b01611222565b945050608088013567ffffffffffffffff81111561153957611538611105565b5b6115458a828b01611222565b93505060a088013567ffffffffffffffff81111561156657611565611105565b5b6115728a828b01611222565b92505060c088013567ffffffffffffffff81111561159357611592611105565b5b61159f8a828b01611222565b91505092959891949750929550565b600060208201905081810360008301526115c881846112e8565b905092915050565b600081905092915050565b60006115e682611299565b6115f081856115d0565b93506116008185602086016112b5565b80840191505092915050565b600061161882846115db565b915081905092915050565b7f596f7520617265206e6f7420617574686f72697a656420746f2061636365737360008201527f207468697320636c69656e742e00000000000000000000000000000000000000602082015250565b600061167f602d836112a4565b915061168a82611623565b604082019050919050565b600060208201905081810360008301526116ae81611672565b9050919050565b7f436c69656e7420696420697320656d7074792021000000000000000000000000600082015250565b60006116eb6014836112a4565b91506116f6826116b5565b602082019050919050565b6000602082019050818103600083015261171a816116de565b9050919050565b7f496e76616c696420636c69656e74206964202100000000000000000000000000600082015250565b60006117576013836112a4565b915061176282611721565b602082019050919050565b600060208201905081810360008301526117868161174a565b9050919050565b7f4e487b7100000000000000000000000000000000000000000000000000000000600052602260045260246000fd5b600060028204905060018216806117d457607f821691505b602082108114156117e8576117e761178d565b5b50919050565b7f436c69656e7420616c7265616479206578697374732100000000000000000000600082015250565b60006118246016836112a4565b915061182f826117ee565b602082019050919050565b6000602082019050818103600083015261185381611817565b9050919050565b6000606082019050818103600083015261187481866112e8565b90506118836020830185611353565b611890604083018461136c565b949350505050565b60008160601b9050919050565b60006118b082611898565b9050919050565b60006118c2826118a5565b9050919050565b6118da6118d582611341565b6118b7565b82525050565b60006118ec82846118c9565b60148201915081905092915050565b600081519050919050565b600082825260208201905092915050565b6000611922826118fb565b61192c8185611906565b935061193c8185602086016112b5565b61194581611114565b840191505092915050565b6000602082019050818103600083015261196a8184611917565b905092915050565b6000611985611980846111a0565b611185565b9050828152602081018484840111156119a1576119a061110f565b5b6119ac8482856112b5565b509392505050565b600082601f8301126119c9576119c861110a565b5b81516119d9848260208601611972565b91505092915050565b6000602082840312156119f8576119f7611100565b5b600082015167ffffffffffffffff811115611a1657611a15611105565b5b611a22848285016119b4565b91505092915050565b7f7b22636c69656e745f6964223a20220000000000000000000000000000000000600082015250565b6000611a61600f836115d0565b9150611a6c82611a2b565b600f82019050919050565b60008190508160005260206000209050919050565b60008154611a99816117bc565b611aa381866115d0565b94506001821660008114611abe5760018114611acf57611b02565b60ff19831686528186019350611b02565b611ad885611a77565b60005b83811015611afa57815481890152600182019150602081019050611adb565b838801955050505b50505092915050565b7f222c000000000000000000000000000000000000000000000000000000000000600082015250565b6000611b416002836115d0565b9150611b4c82611b0b565b600282019050919050565b7f22636c69656e745f6e616d65223a202200000000000000000000000000000000600082015250565b6000611b8d6010836115d0565b9150611b9882611b57565b601082019050919050565b7f22636c69656e745f6c6f676f223a202200000000000000000000000000000000600082015250565b6000611bd96010836115d0565b9150611be482611ba3565b601082019050919050565b7f22636c69656e745f6465736372697074696f6e223a2022000000000000000000600082015250565b6000611c256017836115d0565b9150611c3082611bef565b601782019050919050565b7f22636c69656e745f686f6d6570616765223a2022000000000000000000000000600082015250565b6000611c716014836115d0565b9150611c7c82611c3b565b601482019050919050565b7f2272656469726563745f757269223a2022000000000000000000000000000000600082015250565b6000611cbd6011836115d0565b9150611cc882611c87565b601182019050919050565b7f22636c69656e745f6f776e6572223a2022000000000000000000000000000000600082015250565b6000611d096011836115d0565b9150611d1482611cd3565b601182019050919050565b7f227570646174655f64617465223a200000000000000000000000000000000000600082015250565b6000611d55600f836115d0565b9150611d6082611d1f565b600f82019050919050565b7f2c00000000000000000000000000000000000000000000000000000000000000600082015250565b6000611da16001836115d0565b9150611dac82611d6b565b600182019050919050565b7f226372656174655f64617465223a200000000000000000000000000000000000600082015250565b6000611ded600f836115d0565b9150611df882611db7565b600f82019050919050565b7f7d00000000000000000000000000000000000000000000000000000000000000600082015250565b6000611e396001836115d0565b9150611e4482611e03565b600182019050919050565b6000611e5a82611a54565b9150611e66828c611a8c565b9150611e7182611b34565b9150611e7c82611b80565b9150611e88828b611a8c565b9150611e9382611b34565b9150611e9e82611bcc565b9150611eaa828a611a8c565b9150611eb582611b34565b9150611ec082611c18565b9150611ecc8289611a8c565b9150611ed782611b34565b9150611ee282611c64565b9150611eee8288611a8c565b9150611ef982611b34565b9150611f0482611cb0565b9150611f108287611a8c565b9150611f1b82611b34565b9150611f2682611cfc565b9150611f3282866115db565b9150611f3d82611b34565b9150611f4882611d48565b9150611f5482856115db565b9150611f5f82611d94565b9150611f6a82611de0565b9150611f7682846115db565b9150611f8182611e2c565b91508190509a9950505050505050505050565b6000611fa08284611a8c565b915081905092915050565b7f4e487b7100000000000000000000000000000000000000000000000000000000600052601160045260246000fd5b6000611fe582611362565b91507fffffffffffffffffffffffffffffffffffffffffffffffffffffffffffffffff82141561201857612017611fab565b5b600182019050919050565b7f4e487b7100000000000000000000000000000000000000000000000000000000600052601260045260246000fd5b600061205d82611362565b915061206883611362565b92508261207857612077612023565b5b828204905092915050565b600061208e82611362565b915061209983611362565b9250828210156120ac576120ab611fab565b5b828203905092915050565b60006120c282611362565b91506120cd83611362565b9250826120dd576120dc612023565b5b828206905092915050565b60006120f382611362565b91506120fe83611362565b9250827fffffffffffffffffffffffffffffffffffffffffffffffffffffffffffffffff0382111561213357612132611fab565b5b828201905092915050565b7f4e487b7100000000000000000000000000000000000000000000000000000000600052603260045260246000fd5b600061217882611362565b915061218383611362565b9250817fffffffffffffffffffffffffffffffffffffffffffffffffffffffffffffffff04831182151516156121bc576121bb611fab565b5b82820290509291505056fe4142434445464748494a4b4c4d4e4f505152535455565758595a6162636465666768696a6b6c6d6e6f707172737475767778797a303132333435363738392b2fa26469706673582212201f2ed2664ef988a53372eb37555eb31e36ca1620fd7f5ff94767f948bc229e0864736f6c634300080b0033",
  "immutableReferences": {},
  "source": "// SPDX-License-Identifier: MIT\npragma solidity ^0.8.11;\n\n// We need to import the helper functions from the contract that we copy/pasted.\nimport {Base64} from \"./libraries/Base64.sol\";\nimport {Strings} from \"./libraries/Strings.sol\";\n\ncontract IAM {\n    modifier clientOwner(string memory _client_id) {\n        require(\n            clients[_client_id].client_owner == msg.sender,\n            \"You are not authorized to access this client.\"\n        );\n        _;\n    }\n\n    struct Clients {\n        string client_id; //clientid lowercase clientname\n        string client_secret;\n        string client_name; // unique\n        string client_logo; // svg , png , jpeg encode Base64 to string\n        string client_description;\n        string client_homepage;\n        string redirect_uri;\n        address client_owner;\n        uint256 update_date;\n        uint256 create_date;\n    }\n\n    event AddedClient(\n        string _client_id,\n        address _client_owner,\n        uint256 _create_date\n    );\n\n    mapping(string => Clients) public clients;\n\n    function createClient(\n        string memory _client_id,\n        string memory _client_secret,\n        string memory _client_name,\n        string memory _client_logo,\n        string memory _client_description,\n        string memory _client_homepage,\n        string memory _redirect_uri\n    ) public {\n        require(!isClient(_client_id), \"Client already exists!\");\n        clients[_client_id] = Clients({\n            client_id: _client_id,\n            client_name: _client_name,\n            client_secret: _client_secret,\n            client_logo: _client_logo,\n            client_description: _client_description,\n            client_homepage: _client_homepage,\n            redirect_uri: _redirect_uri,\n            client_owner: msg.sender,\n            update_date: block.timestamp,\n            create_date: block.timestamp\n        });\n        emit AddedClient(_client_id, msg.sender, block.timestamp);\n    }\n\n    function deleteClient(string memory _client_id)\n        public\n        clientOwner(_client_id)\n    {\n        require(bytes(_client_id).length != 0, \"Client id is empty !\");\n        require(isClient(_client_id), \"Invalid client id !\");\n\n        delete clients[_client_id];\n    }\n\n    function isClient(string memory _client_id) private view returns (bool) {\n        require(bytes(_client_id).length != 0, \"Client id is empty !\");\n        return\n            keccak256(abi.encodePacked(clients[_client_id].client_id)) ==\n                keccak256(abi.encodePacked(_client_id))\n                ? true\n                : false;\n    }\n\n    // function getClient(string memory _client_id)\n    //     public\n    //     view\n    //     returns (\n    //         string memory,\n    //         string memory,\n    //         string memory,\n    //         string memory,\n    //         string memory,\n    //         string memory\n    //     )\n    // {\n    //     require(bytes(_client_id).length != 0, \"Client id is empty !\");\n    //     require(isClient(_client_id), \"Invalid client id !\");\n    //     Clients memory client = clients[_client_id];\n    //     return (\n    //         client.client_name,\n    //         client.client_secret,\n    //         client.client_logo,\n    //         client.client_description,\n    //         client.client_homepage,\n    //         client.client_uri\n    //     );\n    // }\n\n    function getClientPublicJson(string memory _client_id)\n        public\n        view\n        returns (string memory)\n    {\n        require(bytes(_client_id).length != 0, \"Client id is empty !\");\n        require(isClient(_client_id), \"Invalid client id !\");\n        string memory client = Base64.encode(\n            bytes(\n                string(\n                    abi.encodePacked(\n                        '{\"client_id\": \"',\n                        clients[_client_id].client_id,\n                        '\",',\n                        '\"client_name\": \"',\n                        clients[_client_id].client_name,\n                        '\",',\n                        '\"client_logo\": \"',\n                        clients[_client_id].client_logo,\n                        '\",',\n                        '\"client_description\": \"',\n                        clients[_client_id].client_description,\n                        '\",',\n                        '\"client_homepage\": \"',\n                        clients[_client_id].client_homepage,\n                        '\",',\n                        '\"redirect_uri\": \"',\n                        clients[_client_id].redirect_uri,\n                        '\",',\n                        '\"client_owner\": \"',\n                        Strings.toString(\n                            abi.encodePacked(clients[_client_id].client_owner)\n                        ),\n                        '\",',\n                        '\"update_date\": ',\n                        Strings.uint256ToString(\n                            clients[_client_id].update_date\n                        ),\n                        \",\",\n                        '\"create_date\": ',\n                        Strings.uint256ToString(\n                            clients[_client_id].create_date\n                        ),\n                        \"}\"\n                    )\n                )\n            )\n        );\n        return string(abi.encodePacked(client));\n    }\n}\n",
  "sourcePath": "/Users/kritsanawipankhet/Development/Github/iamblockchain-smartcontract/contracts/IAM.sol",
  "compiler": {
    "name": "solc",
    "version": "0.8.11+commit.d7f03943.Emscripten.clang"
  },
  "schemaVersion": "3.4.6",
  "updatedAt": "2022-03-27T08:06:22.048Z",
  "networkType": "ethereum",
  "devdoc": {
    "kind": "dev",
    "methods": {},
    "version": 1
  },
  "userdoc": {
    "kind": "user",
    "methods": {},
    "version": 1
  }
}