{
  "contractName": "IAM",
  "abi": [
    {
      "anonymous": false,
      "inputs": [
        {
          "indexed": false,
          "internalType": "string",
          "name": "_client_id",
          "type": "string"
        },
        {
          "indexed": false,
          "internalType": "address",
          "name": "_client_owner",
          "type": "address"
        },
        {
          "indexed": false,
          "internalType": "uint256",
          "name": "_create_date",
          "type": "uint256"
        }
      ],
      "name": "AddClient",
      "type": "event"
    },
    {
      "anonymous": false,
      "inputs": [
        {
          "indexed": false,
          "internalType": "string",
          "name": "_client_id",
          "type": "string"
        },
        {
          "indexed": false,
          "internalType": "address",
          "name": "_client_owner",
          "type": "address"
        },
        {
          "indexed": false,
          "internalType": "uint256",
          "name": "_del_date",
          "type": "uint256"
        }
      ],
      "name": "DelClient",
      "type": "event"
    },
    {
      "anonymous": false,
      "inputs": [
        {
          "indexed": false,
          "internalType": "string",
          "name": "_client_id",
          "type": "string"
        },
        {
          "indexed": false,
          "internalType": "address",
          "name": "_client_owner",
          "type": "address"
        },
        {
          "indexed": false,
          "internalType": "uint256",
          "name": "_update_date",
          "type": "uint256"
        }
      ],
      "name": "EditClient",
      "type": "event"
    },
    {
      "anonymous": false,
      "inputs": [
        {
          "indexed": false,
          "internalType": "string",
          "name": "_client_id",
          "type": "string"
        },
        {
          "indexed": false,
          "internalType": "address",
          "name": "_client_user",
          "type": "address"
        },
        {
          "indexed": false,
          "internalType": "uint256",
          "name": "_create_date",
          "type": "uint256"
        }
      ],
      "name": "grantAuthorize",
      "type": "event"
    },
    {
      "inputs": [
        {
          "internalType": "string",
          "name": "",
          "type": "string"
        }
      ],
      "name": "authorizations",
      "outputs": [
        {
          "internalType": "string",
          "name": "authorization_code",
          "type": "string"
        },
        {
          "components": [
            {
              "internalType": "string",
              "name": "client_id",
              "type": "string"
            },
            {
              "internalType": "string",
              "name": "client_secret",
              "type": "string"
            },
            {
              "internalType": "string",
              "name": "client_name",
              "type": "string"
            },
            {
              "internalType": "string",
              "name": "client_logo",
              "type": "string"
            },
            {
              "internalType": "string",
              "name": "client_description",
              "type": "string"
            },
            {
              "internalType": "string",
              "name": "client_homepage",
              "type": "string"
            },
            {
              "internalType": "string",
              "name": "redirect_uri",
              "type": "string"
            },
            {
              "internalType": "address",
              "name": "client_owner",
              "type": "address"
            },
            {
              "internalType": "bool",
              "name": "is_active",
              "type": "bool"
            },
            {
              "internalType": "uint256",
              "name": "update_date",
              "type": "uint256"
            },
            {
              "internalType": "uint256",
              "name": "create_date",
              "type": "uint256"
            }
          ],
          "internalType": "struct IAM.Clients",
          "name": "client",
          "type": "tuple"
        },
        {
          "internalType": "string",
          "name": "redirect_uri",
          "type": "string"
        },
        {
          "internalType": "address",
          "name": "client_user",
          "type": "address"
        },
        {
          "internalType": "uint256",
          "name": "expires_at",
          "type": "uint256"
        },
        {
          "internalType": "bool",
          "name": "is_active",
          "type": "bool"
        },
        {
          "internalType": "uint256",
          "name": "create_date",
          "type": "uint256"
        }
      ],
      "stateMutability": "view",
      "type": "function"
    },
    {
      "inputs": [
        {
          "internalType": "string",
          "name": "",
          "type": "string"
        }
      ],
      "name": "clients",
      "outputs": [
        {
          "internalType": "string",
          "name": "client_id",
          "type": "string"
        },
        {
          "internalType": "string",
          "name": "client_secret",
          "type": "string"
        },
        {
          "internalType": "string",
          "name": "client_name",
          "type": "string"
        },
        {
          "internalType": "string",
          "name": "client_logo",
          "type": "string"
        },
        {
          "internalType": "string",
          "name": "client_description",
          "type": "string"
        },
        {
          "internalType": "string",
          "name": "client_homepage",
          "type": "string"
        },
        {
          "internalType": "string",
          "name": "redirect_uri",
          "type": "string"
        },
        {
          "internalType": "address",
          "name": "client_owner",
          "type": "address"
        },
        {
          "internalType": "bool",
          "name": "is_active",
          "type": "bool"
        },
        {
          "internalType": "uint256",
          "name": "update_date",
          "type": "uint256"
        },
        {
          "internalType": "uint256",
          "name": "create_date",
          "type": "uint256"
        }
      ],
      "stateMutability": "view",
      "type": "function"
    },
    {
      "inputs": [
        {
          "internalType": "string",
          "name": "",
          "type": "string"
        }
      ],
      "name": "tokens",
      "outputs": [
        {
          "components": [
            {
              "internalType": "string",
              "name": "authorization_code",
              "type": "string"
            },
            {
              "components": [
                {
                  "internalType": "string",
                  "name": "client_id",
                  "type": "string"
                },
                {
                  "internalType": "string",
                  "name": "client_secret",
                  "type": "string"
                },
                {
                  "internalType": "string",
                  "name": "client_name",
                  "type": "string"
                },
                {
                  "internalType": "string",
                  "name": "client_logo",
                  "type": "string"
                },
                {
                  "internalType": "string",
                  "name": "client_description",
                  "type": "string"
                },
                {
                  "internalType": "string",
                  "name": "client_homepage",
                  "type": "string"
                },
                {
                  "internalType": "string",
                  "name": "redirect_uri",
                  "type": "string"
                },
                {
                  "internalType": "address",
                  "name": "client_owner",
                  "type": "address"
                },
                {
                  "internalType": "bool",
                  "name": "is_active",
                  "type": "bool"
                },
                {
                  "internalType": "uint256",
                  "name": "update_date",
                  "type": "uint256"
                },
                {
                  "internalType": "uint256",
                  "name": "create_date",
                  "type": "uint256"
                }
              ],
              "internalType": "struct IAM.Clients",
              "name": "client",
              "type": "tuple"
            },
            {
              "internalType": "string[]",
              "name": "scopes",
              "type": "string[]"
            },
            {
              "internalType": "string",
              "name": "redirect_uri",
              "type": "string"
            },
            {
              "internalType": "address",
              "name": "client_user",
              "type": "address"
            },
            {
              "internalType": "uint256",
              "name": "expires_at",
              "type": "uint256"
            },
            {
              "internalType": "bool",
              "name": "is_active",
              "type": "bool"
            },
            {
              "internalType": "uint256",
              "name": "create_date",
              "type": "uint256"
            }
          ],
          "internalType": "struct IAM.Authorizations",
          "name": "authorization",
          "type": "tuple"
        },
        {
          "internalType": "string",
          "name": "access_token",
          "type": "string"
        },
        {
          "internalType": "uint256",
          "name": "access_token_expires_at",
          "type": "uint256"
        },
        {
          "internalType": "string",
          "name": "refresh_token",
          "type": "string"
        },
        {
          "internalType": "uint256",
          "name": "refresh_token_expires_at",
          "type": "uint256"
        },
        {
          "components": [
            {
              "internalType": "string",
              "name": "client_id",
              "type": "string"
            },
            {
              "internalType": "string",
              "name": "client_secret",
              "type": "string"
            },
            {
              "internalType": "string",
              "name": "client_name",
              "type": "string"
            },
            {
              "internalType": "string",
              "name": "client_logo",
              "type": "string"
            },
            {
              "internalType": "string",
              "name": "client_description",
              "type": "string"
            },
            {
              "internalType": "string",
              "name": "client_homepage",
              "type": "string"
            },
            {
              "internalType": "string",
              "name": "redirect_uri",
              "type": "string"
            },
            {
              "internalType": "address",
              "name": "client_owner",
              "type": "address"
            },
            {
              "internalType": "bool",
              "name": "is_active",
              "type": "bool"
            },
            {
              "internalType": "uint256",
              "name": "update_date",
              "type": "uint256"
            },
            {
              "internalType": "uint256",
              "name": "create_date",
              "type": "uint256"
            }
          ],
          "internalType": "struct IAM.Clients",
          "name": "client",
          "type": "tuple"
        },
        {
          "internalType": "address",
          "name": "client_user",
          "type": "address"
        },
        {
          "internalType": "bool",
          "name": "is_active",
          "type": "bool"
        },
        {
          "internalType": "uint256",
          "name": "create_date",
          "type": "uint256"
        }
      ],
      "stateMutability": "view",
      "type": "function"
    },
    {
      "inputs": [
        {
          "internalType": "string",
          "name": "_client_id",
          "type": "string"
        },
        {
          "internalType": "string",
          "name": "_authorization_code",
          "type": "string"
        },
        {
          "internalType": "string[]",
          "name": "_scopes",
          "type": "string[]"
        },
        {
          "internalType": "string",
          "name": "_redirect_uri",
          "type": "string"
        },
        {
          "internalType": "uint256",
          "name": "_expiration_period",
          "type": "uint256"
        }
      ],
      "name": "createAuthorize",
      "outputs": [],
      "stateMutability": "nonpayable",
      "type": "function"
    },
    {
      "inputs": [
        {
          "internalType": "string",
          "name": "_authorization_code",
          "type": "string"
        }
      ],
      "name": "getGrantAuthorize",
      "outputs": [
        {
          "components": [
            {
              "internalType": "string",
              "name": "authorization_code",
              "type": "string"
            },
            {
              "components": [
                {
                  "internalType": "string",
                  "name": "client_id",
                  "type": "string"
                },
                {
                  "internalType": "string",
                  "name": "client_secret",
                  "type": "string"
                },
                {
                  "internalType": "string",
                  "name": "client_name",
                  "type": "string"
                },
                {
                  "internalType": "string",
                  "name": "client_logo",
                  "type": "string"
                },
                {
                  "internalType": "string",
                  "name": "client_description",
                  "type": "string"
                },
                {
                  "internalType": "string",
                  "name": "client_homepage",
                  "type": "string"
                },
                {
                  "internalType": "string",
                  "name": "redirect_uri",
                  "type": "string"
                },
                {
                  "internalType": "address",
                  "name": "client_owner",
                  "type": "address"
                },
                {
                  "internalType": "bool",
                  "name": "is_active",
                  "type": "bool"
                },
                {
                  "internalType": "uint256",
                  "name": "update_date",
                  "type": "uint256"
                },
                {
                  "internalType": "uint256",
                  "name": "create_date",
                  "type": "uint256"
                }
              ],
              "internalType": "struct IAM.Clients",
              "name": "client",
              "type": "tuple"
            },
            {
              "internalType": "string[]",
              "name": "scopes",
              "type": "string[]"
            },
            {
              "internalType": "string",
              "name": "redirect_uri",
              "type": "string"
            },
            {
              "internalType": "address",
              "name": "client_user",
              "type": "address"
            },
            {
              "internalType": "uint256",
              "name": "expires_at",
              "type": "uint256"
            },
            {
              "internalType": "bool",
              "name": "is_active",
              "type": "bool"
            },
            {
              "internalType": "uint256",
              "name": "create_date",
              "type": "uint256"
            }
          ],
          "internalType": "struct IAM.Authorizations",
          "name": "",
          "type": "tuple"
        }
      ],
      "stateMutability": "view",
      "type": "function"
    },
    {
      "inputs": [
        {
          "internalType": "string",
          "name": "_client_id",
          "type": "string"
        },
        {
          "internalType": "string",
          "name": "_client_secret",
          "type": "string"
        },
        {
          "internalType": "string",
          "name": "_client_name",
          "type": "string"
        },
        {
          "internalType": "string",
          "name": "_client_logo",
          "type": "string"
        },
        {
          "internalType": "string",
          "name": "_client_description",
          "type": "string"
        },
        {
          "internalType": "string",
          "name": "_client_homepage",
          "type": "string"
        },
        {
          "internalType": "string",
          "name": "_redirect_uri",
          "type": "string"
        }
      ],
      "name": "createClient",
      "outputs": [],
      "stateMutability": "nonpayable",
      "type": "function"
    },
    {
      "inputs": [
        {
          "internalType": "string",
          "name": "_client_id",
          "type": "string"
        }
      ],
      "name": "deleteClient",
      "outputs": [],
      "stateMutability": "nonpayable",
      "type": "function"
    },
    {
      "inputs": [
        {
          "internalType": "string",
          "name": "_client_id",
          "type": "string"
        }
      ],
      "name": "getClientByOwner",
      "outputs": [
        {
          "components": [
            {
              "internalType": "string",
              "name": "client_id",
              "type": "string"
            },
            {
              "internalType": "string",
              "name": "client_secret",
              "type": "string"
            },
            {
              "internalType": "string",
              "name": "client_name",
              "type": "string"
            },
            {
              "internalType": "string",
              "name": "client_logo",
              "type": "string"
            },
            {
              "internalType": "string",
              "name": "client_description",
              "type": "string"
            },
            {
              "internalType": "string",
              "name": "client_homepage",
              "type": "string"
            },
            {
              "internalType": "string",
              "name": "redirect_uri",
              "type": "string"
            },
            {
              "internalType": "address",
              "name": "client_owner",
              "type": "address"
            },
            {
              "internalType": "bool",
              "name": "is_active",
              "type": "bool"
            },
            {
              "internalType": "uint256",
              "name": "update_date",
              "type": "uint256"
            },
            {
              "internalType": "uint256",
              "name": "create_date",
              "type": "uint256"
            }
          ],
          "internalType": "struct IAM.Clients",
          "name": "",
          "type": "tuple"
        }
      ],
      "stateMutability": "view",
      "type": "function"
    },
    {
      "inputs": [
        {
          "internalType": "string",
          "name": "_client_id",
          "type": "string"
        }
      ],
      "name": "getClientPublicJson",
      "outputs": [
        {
          "internalType": "string",
          "name": "",
          "type": "string"
        }
      ],
      "stateMutability": "view",
      "type": "function"
    },
    {
      "inputs": [
        {
          "internalType": "uint256",
          "name": "_expires_at",
          "type": "uint256"
        }
      ],
      "name": "isExpire",
      "outputs": [
        {
          "internalType": "bool",
          "name": "",
          "type": "bool"
        }
      ],
      "stateMutability": "view",
      "type": "function"
    }
  ],
  "bytecode": "0x608060405234801561001057600080fd5b506155e580620000216000396000f3fe608060405234801561001057600080fd5b506004361061009e5760003560e01c80639aa79f30116100665780639aa79f3014610197578063b4cacee8146101c7578063ba920db8146101e3578063da882fbb146101ff578063e11778861461022f5761009e565b806304c2320b146100a3578063184183db146100db57806320ba1e9f146100f75780634f60c8941461013157806368239cd514610167575b600080fd5b6100bd60048036038101906100b89190613de8565b61025f565b6040516100d29998979695949392919061435e565b60405180910390f35b6100f560048036038101906100f09190613de8565b610fb3565b005b610111600480360381019061010c9190613de8565b6111d0565b6040516101289b9a99989796959493929190614407565b60405180910390f35b61014b60048036038101906101469190613de8565b611625565b60405161015e97969594939291906144e3565b60405180910390f35b610181600480360381019061017c9190613de8565b611c48565b60405161018e9190614567565b60405180910390f35b6101b160048036038101906101ac9190613de8565b61239b565b6040516101be9190614589565b60405180910390f35b6101e160048036038101906101dc91906146bd565b612995565b005b6101fd60048036038101906101f891906147a8565b613135565b005b61021960048036038101906102149190613de8565b613391565b604051610226919061490e565b60405180910390f35b61024960048036038101906102449190614930565b613672565b604051610256919061495d565b60405180910390f35b60028180516020810182018051848252602083016020850120818352809550505050505060009150905080600001604051806101000160405290816000820180546102a9906149a7565b80601f01602080910402602001604051908101604052809291908181526020018280546102d5906149a7565b80156103225780601f106102f757610100808354040283529160200191610322565b820191906000526020600020905b81548152906001019060200180831161030557829003601f168201915b50505050508152602001600182016040518061016001604052908160008201805461034c906149a7565b80601f0160208091040260200160405190810160405280929190818152602001828054610378906149a7565b80156103c55780601f1061039a576101008083540402835291602001916103c5565b820191906000526020600020905b8154815290600101906020018083116103a857829003601f168201915b505050505081526020016001820180546103de906149a7565b80601f016020809104026020016040519081016040528092919081815260200182805461040a906149a7565b80156104575780601f1061042c57610100808354040283529160200191610457565b820191906000526020600020905b81548152906001019060200180831161043a57829003601f168201915b50505050508152602001600282018054610470906149a7565b80601f016020809104026020016040519081016040528092919081815260200182805461049c906149a7565b80156104e95780601f106104be576101008083540402835291602001916104e9565b820191906000526020600020905b8154815290600101906020018083116104cc57829003601f168201915b50505050508152602001600382018054610502906149a7565b80601f016020809104026020016040519081016040528092919081815260200182805461052e906149a7565b801561057b5780601f106105505761010080835404028352916020019161057b565b820191906000526020600020905b81548152906001019060200180831161055e57829003601f168201915b50505050508152602001600482018054610594906149a7565b80601f01602080910402602001604051908101604052809291908181526020018280546105c0906149a7565b801561060d5780601f106105e25761010080835404028352916020019161060d565b820191906000526020600020905b8154815290600101906020018083116105f057829003601f168201915b50505050508152602001600582018054610626906149a7565b80601f0160208091040260200160405190810160405280929190818152602001828054610652906149a7565b801561069f5780601f106106745761010080835404028352916020019161069f565b820191906000526020600020905b81548152906001019060200180831161068257829003601f168201915b505050505081526020016006820180546106b8906149a7565b80601f01602080910402602001604051908101604052809291908181526020018280546106e4906149a7565b80156107315780601f1061070657610100808354040283529160200191610731565b820191906000526020600020905b81548152906001019060200180831161071457829003601f168201915b505050505081526020016007820160009054906101000a900473ffffffffffffffffffffffffffffffffffffffff1673ffffffffffffffffffffffffffffffffffffffff1673ffffffffffffffffffffffffffffffffffffffff1681526020016007820160149054906101000a900460ff16151515158152602001600882015481526020016009820154815250508152602001600b8201805480602002602001604051908101604052809291908181526020016000905b82821015610894578382906000526020600020018054610807906149a7565b80601f0160208091040260200160405190810160405280929190818152602001828054610833906149a7565b80156108805780601f1061085557610100808354040283529160200191610880565b820191906000526020600020905b81548152906001019060200180831161086357829003601f168201915b5050505050815260200190600101906107e8565b505050508152602001600c820180546108ac906149a7565b80601f01602080910402602001604051908101604052809291908181526020018280546108d8906149a7565b80156109255780601f106108fa57610100808354040283529160200191610925565b820191906000526020600020905b81548152906001019060200180831161090857829003601f168201915b50505050508152602001600d820160009054906101000a900473ffffffffffffffffffffffffffffffffffffffff1673ffffffffffffffffffffffffffffffffffffffff1673ffffffffffffffffffffffffffffffffffffffff168152602001600e8201548152602001600f820160009054906101000a900460ff16151515158152602001601082015481525050908060110180546109c3906149a7565b80601f01602080910402602001604051908101604052809291908181526020018280546109ef906149a7565b8015610a3c5780601f10610a1157610100808354040283529160200191610a3c565b820191906000526020600020905b815481529060010190602001808311610a1f57829003601f168201915b505050505090806012015490806013018054610a57906149a7565b80601f0160208091040260200160405190810160405280929190818152602001828054610a83906149a7565b8015610ad05780601f10610aa557610100808354040283529160200191610ad0565b820191906000526020600020905b815481529060010190602001808311610ab357829003601f168201915b5050505050908060140154908060150160405180610160016040529081600082018054610afc906149a7565b80601f0160208091040260200160405190810160405280929190818152602001828054610b28906149a7565b8015610b755780601f10610b4a57610100808354040283529160200191610b75565b820191906000526020600020905b815481529060010190602001808311610b5857829003601f168201915b50505050508152602001600182018054610b8e906149a7565b80601f0160208091040260200160405190810160405280929190818152602001828054610bba906149a7565b8015610c075780601f10610bdc57610100808354040283529160200191610c07565b820191906000526020600020905b815481529060010190602001808311610bea57829003601f168201915b50505050508152602001600282018054610c20906149a7565b80601f0160208091040260200160405190810160405280929190818152602001828054610c4c906149a7565b8015610c995780601f10610c6e57610100808354040283529160200191610c99565b820191906000526020600020905b815481529060010190602001808311610c7c57829003601f168201915b50505050508152602001600382018054610cb2906149a7565b80601f0160208091040260200160405190810160405280929190818152602001828054610cde906149a7565b8015610d2b5780601f10610d0057610100808354040283529160200191610d2b565b820191906000526020600020905b815481529060010190602001808311610d0e57829003601f168201915b50505050508152602001600482018054610d44906149a7565b80601f0160208091040260200160405190810160405280929190818152602001828054610d70906149a7565b8015610dbd5780601f10610d9257610100808354040283529160200191610dbd565b820191906000526020600020905b815481529060010190602001808311610da057829003601f168201915b50505050508152602001600582018054610dd6906149a7565b80601f0160208091040260200160405190810160405280929190818152602001828054610e02906149a7565b8015610e4f5780601f10610e2457610100808354040283529160200191610e4f565b820191906000526020600020905b815481529060010190602001808311610e3257829003601f168201915b50505050508152602001600682018054610e68906149a7565b80601f0160208091040260200160405190810160405280929190818152602001828054610e94906149a7565b8015610ee15780601f10610eb657610100808354040283529160200191610ee1565b820191906000526020600020905b815481529060010190602001808311610ec457829003601f168201915b505050505081526020016007820160009054906101000a900473ffffffffffffffffffffffffffffffffffffffff1673ffffffffffffffffffffffffffffffffffffffff1673ffffffffffffffffffffffffffffffffffffffff1681526020016007820160149054906101000a900460ff16151515158152602001600882015481526020016009820154815250509080601f0160009054906101000a900473ffffffffffffffffffffffffffffffffffffffff169080601f0160149054906101000a900460ff16908060200154905089565b803373ffffffffffffffffffffffffffffffffffffffff16600082604051610fdb9190614a15565b908152602001604051809103902060070160009054906101000a900473ffffffffffffffffffffffffffffffffffffffff1673ffffffffffffffffffffffffffffffffffffffff1614611063576040517f08c379a000000000000000000000000000000000000000000000000000000000815260040161105a90614a9e565b60405180910390fd5b6000825114156110a8576040517f08c379a000000000000000000000000000000000000000000000000000000000815260040161109f90614b0a565b60405180910390fd5b6110b18261368f565b6110f0576040517f08c379a00000000000000000000000000000000000000000000000000000000081526004016110e790614b76565b60405180910390fd5b6000826040516111009190614a15565b90815260200160405180910390206000808201600061111f9190613a52565b60018201600061112f9190613a52565b60028201600061113f9190613a52565b60038201600061114f9190613a52565b60048201600061115f9190613a52565b60058201600061116f9190613a52565b60068201600061117f9190613a52565b6007820160006101000a81549073ffffffffffffffffffffffffffffffffffffffff02191690556007820160146101000a81549060ff02191690556008820160009055600982016000905550505050565b600081805160208101820180518482526020830160208501208183528095505050505050600091509050806000018054611209906149a7565b80601f0160208091040260200160405190810160405280929190818152602001828054611235906149a7565b80156112825780601f1061125757610100808354040283529160200191611282565b820191906000526020600020905b81548152906001019060200180831161126557829003601f168201915b505050505090806001018054611297906149a7565b80601f01602080910402602001604051908101604052809291908181526020018280546112c3906149a7565b80156113105780601f106112e557610100808354040283529160200191611310565b820191906000526020600020905b8154815290600101906020018083116112f357829003601f168201915b505050505090806002018054611325906149a7565b80601f0160208091040260200160405190810160405280929190818152602001828054611351906149a7565b801561139e5780601f106113735761010080835404028352916020019161139e565b820191906000526020600020905b81548152906001019060200180831161138157829003601f168201915b5050505050908060030180546113b3906149a7565b80601f01602080910402602001604051908101604052809291908181526020018280546113df906149a7565b801561142c5780601f106114015761010080835404028352916020019161142c565b820191906000526020600020905b81548152906001019060200180831161140f57829003601f168201915b505050505090806004018054611441906149a7565b80601f016020809104026020016040519081016040528092919081815260200182805461146d906149a7565b80156114ba5780601f1061148f576101008083540402835291602001916114ba565b820191906000526020600020905b81548152906001019060200180831161149d57829003601f168201915b5050505050908060050180546114cf906149a7565b80601f01602080910402602001604051908101604052809291908181526020018280546114fb906149a7565b80156115485780601f1061151d57610100808354040283529160200191611548565b820191906000526020600020905b81548152906001019060200180831161152b57829003601f168201915b50505050509080600601805461155d906149a7565b80601f0160208091040260200160405190810160405280929190818152602001828054611589906149a7565b80156115d65780601f106115ab576101008083540402835291602001916115d6565b820191906000526020600020905b8154815290600101906020018083116115b957829003601f168201915b5050505050908060070160009054906101000a900473ffffffffffffffffffffffffffffffffffffffff16908060070160149054906101000a900460ff1690806008015490806009015490508b565b60018180516020810182018051848252602083016020850120818352809550505050505060009150905080600001805461165e906149a7565b80601f016020809104026020016040519081016040528092919081815260200182805461168a906149a7565b80156116d75780601f106116ac576101008083540402835291602001916116d7565b820191906000526020600020905b8154815290600101906020018083116116ba57829003601f168201915b50505050509080600101604051806101600160405290816000820180546116fd906149a7565b80601f0160208091040260200160405190810160405280929190818152602001828054611729906149a7565b80156117765780601f1061174b57610100808354040283529160200191611776565b820191906000526020600020905b81548152906001019060200180831161175957829003601f168201915b5050505050815260200160018201805461178f906149a7565b80601f01602080910402602001604051908101604052809291908181526020018280546117bb906149a7565b80156118085780601f106117dd57610100808354040283529160200191611808565b820191906000526020600020905b8154815290600101906020018083116117eb57829003601f168201915b50505050508152602001600282018054611821906149a7565b80601f016020809104026020016040519081016040528092919081815260200182805461184d906149a7565b801561189a5780601f1061186f5761010080835404028352916020019161189a565b820191906000526020600020905b81548152906001019060200180831161187d57829003601f168201915b505050505081526020016003820180546118b3906149a7565b80601f01602080910402602001604051908101604052809291908181526020018280546118df906149a7565b801561192c5780601f106119015761010080835404028352916020019161192c565b820191906000526020600020905b81548152906001019060200180831161190f57829003601f168201915b50505050508152602001600482018054611945906149a7565b80601f0160208091040260200160405190810160405280929190818152602001828054611971906149a7565b80156119be5780601f10611993576101008083540402835291602001916119be565b820191906000526020600020905b8154815290600101906020018083116119a157829003601f168201915b505050505081526020016005820180546119d7906149a7565b80601f0160208091040260200160405190810160405280929190818152602001828054611a03906149a7565b8015611a505780601f10611a2557610100808354040283529160200191611a50565b820191906000526020600020905b815481529060010190602001808311611a3357829003601f168201915b50505050508152602001600682018054611a69906149a7565b80601f0160208091040260200160405190810160405280929190818152602001828054611a95906149a7565b8015611ae25780601f10611ab757610100808354040283529160200191611ae2565b820191906000526020600020905b815481529060010190602001808311611ac557829003601f168201915b505050505081526020016007820160009054906101000a900473ffffffffffffffffffffffffffffffffffffffff1673ffffffffffffffffffffffffffffffffffffffff1673ffffffffffffffffffffffffffffffffffffffff1681526020016007820160149054906101000a900460ff16151515158152602001600882015481526020016009820154815250509080600c018054611b80906149a7565b80601f0160208091040260200160405190810160405280929190818152602001828054611bac906149a7565b8015611bf95780601f10611bce57610100808354040283529160200191611bf9565b820191906000526020600020905b815481529060010190602001808311611bdc57829003601f168201915b50505050509080600d0160009054906101000a900473ffffffffffffffffffffffffffffffffffffffff169080600e01549080600f0160009054906101000a900460ff16908060100154905087565b611c50613a92565b600182604051611c609190614a15565b908152602001604051809103902060405180610100016040529081600082018054611c8a906149a7565b80601f0160208091040260200160405190810160405280929190818152602001828054611cb6906149a7565b8015611d035780601f10611cd857610100808354040283529160200191611d03565b820191906000526020600020905b815481529060010190602001808311611ce657829003601f168201915b505050505081526020016001820160405180610160016040529081600082018054611d2d906149a7565b80601f0160208091040260200160405190810160405280929190818152602001828054611d59906149a7565b8015611da65780601f10611d7b57610100808354040283529160200191611da6565b820191906000526020600020905b815481529060010190602001808311611d8957829003601f168201915b50505050508152602001600182018054611dbf906149a7565b80601f0160208091040260200160405190810160405280929190818152602001828054611deb906149a7565b8015611e385780601f10611e0d57610100808354040283529160200191611e38565b820191906000526020600020905b815481529060010190602001808311611e1b57829003601f168201915b50505050508152602001600282018054611e51906149a7565b80601f0160208091040260200160405190810160405280929190818152602001828054611e7d906149a7565b8015611eca5780601f10611e9f57610100808354040283529160200191611eca565b820191906000526020600020905b815481529060010190602001808311611ead57829003601f168201915b50505050508152602001600382018054611ee3906149a7565b80601f0160208091040260200160405190810160405280929190818152602001828054611f0f906149a7565b8015611f5c5780601f10611f3157610100808354040283529160200191611f5c565b820191906000526020600020905b815481529060010190602001808311611f3f57829003601f168201915b50505050508152602001600482018054611f75906149a7565b80601f0160208091040260200160405190810160405280929190818152602001828054611fa1906149a7565b8015611fee5780601f10611fc357610100808354040283529160200191611fee565b820191906000526020600020905b815481529060010190602001808311611fd157829003601f168201915b50505050508152602001600582018054612007906149a7565b80601f0160208091040260200160405190810160405280929190818152602001828054612033906149a7565b80156120805780601f1061205557610100808354040283529160200191612080565b820191906000526020600020905b81548152906001019060200180831161206357829003601f168201915b50505050508152602001600682018054612099906149a7565b80601f01602080910402602001604051908101604052809291908181526020018280546120c5906149a7565b80156121125780601f106120e757610100808354040283529160200191612112565b820191906000526020600020905b8154815290600101906020018083116120f557829003601f168201915b505050505081526020016007820160009054906101000a900473ffffffffffffffffffffffffffffffffffffffff1673ffffffffffffffffffffffffffffffffffffffff1673ffffffffffffffffffffffffffffffffffffffff1681526020016007820160149054906101000a900460ff16151515158152602001600882015481526020016009820154815250508152602001600b8201805480602002602001604051908101604052809291908181526020016000905b828210156122755783829060005260206000200180546121e8906149a7565b80601f0160208091040260200160405190810160405280929190818152602001828054612214906149a7565b80156122615780601f1061223657610100808354040283529160200191612261565b820191906000526020600020905b81548152906001019060200180831161224457829003601f168201915b5050505050815260200190600101906121c9565b505050508152602001600c8201805461228d906149a7565b80601f01602080910402602001604051908101604052809291908181526020018280546122b9906149a7565b80156123065780601f106122db57610100808354040283529160200191612306565b820191906000526020600020905b8154815290600101906020018083116122e957829003601f168201915b50505050508152602001600d820160009054906101000a900473ffffffffffffffffffffffffffffffffffffffff1673ffffffffffffffffffffffffffffffffffffffff1673ffffffffffffffffffffffffffffffffffffffff168152602001600e8201548152602001600f820160009054906101000a900460ff161515151581526020016010820154815250509050919050565b6123a3613af5565b813373ffffffffffffffffffffffffffffffffffffffff166000826040516123cb9190614a15565b908152602001604051809103902060070160009054906101000a900473ffffffffffffffffffffffffffffffffffffffff1673ffffffffffffffffffffffffffffffffffffffff1614612453576040517f08c379a000000000000000000000000000000000000000000000000000000000815260040161244a90614a9e565b60405180910390fd5b600083511415612498576040517f08c379a000000000000000000000000000000000000000000000000000000000815260040161248f90614b0a565b60405180910390fd5b6124a18361368f565b6124e0576040517f08c379a00000000000000000000000000000000000000000000000000000000081526004016124d790614b76565b60405180910390fd5b6000836040516124f09190614a15565b90815260200160405180910390206040518061016001604052908160008201805461251a906149a7565b80601f0160208091040260200160405190810160405280929190818152602001828054612546906149a7565b80156125935780601f1061256857610100808354040283529160200191612593565b820191906000526020600020905b81548152906001019060200180831161257657829003601f168201915b505050505081526020016001820180546125ac906149a7565b80601f01602080910402602001604051908101604052809291908181526020018280546125d8906149a7565b80156126255780601f106125fa57610100808354040283529160200191612625565b820191906000526020600020905b81548152906001019060200180831161260857829003601f168201915b5050505050815260200160028201805461263e906149a7565b80601f016020809104026020016040519081016040528092919081815260200182805461266a906149a7565b80156126b75780601f1061268c576101008083540402835291602001916126b7565b820191906000526020600020905b81548152906001019060200180831161269a57829003601f168201915b505050505081526020016003820180546126d0906149a7565b80601f01602080910402602001604051908101604052809291908181526020018280546126fc906149a7565b80156127495780601f1061271e57610100808354040283529160200191612749565b820191906000526020600020905b81548152906001019060200180831161272c57829003601f168201915b50505050508152602001600482018054612762906149a7565b80601f016020809104026020016040519081016040528092919081815260200182805461278e906149a7565b80156127db5780601f106127b0576101008083540402835291602001916127db565b820191906000526020600020905b8154815290600101906020018083116127be57829003601f168201915b505050505081526020016005820180546127f4906149a7565b80601f0160208091040260200160405190810160405280929190818152602001828054612820906149a7565b801561286d5780601f106128425761010080835404028352916020019161286d565b820191906000526020600020905b81548152906001019060200180831161285057829003601f168201915b50505050508152602001600682018054612886906149a7565b80601f01602080910402602001604051908101604052809291908181526020018280546128b2906149a7565b80156128ff5780601f106128d4576101008083540402835291602001916128ff565b820191906000526020600020905b8154815290600101906020018083116128e257829003601f168201915b505050505081526020016007820160009054906101000a900473ffffffffffffffffffffffffffffffffffffffff1673ffffffffffffffffffffffffffffffffffffffff1673ffffffffffffffffffffffffffffffffffffffff1681526020016007820160149054906101000a900460ff1615151515815260200160088201548152602001600982015481525050915050919050565b61299e8561368f565b6129dd576040517f08c379a00000000000000000000000000000000000000000000000000000000081526004016129d490614b76565b60405180910390fd5b6040518061010001604052808581526020016000876040516129ff9190614a15565b908152602001604051809103902060405180610160016040529081600082018054612a29906149a7565b80601f0160208091040260200160405190810160405280929190818152602001828054612a55906149a7565b8015612aa25780601f10612a7757610100808354040283529160200191612aa2565b820191906000526020600020905b815481529060010190602001808311612a8557829003601f168201915b50505050508152602001600182018054612abb906149a7565b80601f0160208091040260200160405190810160405280929190818152602001828054612ae7906149a7565b8015612b345780601f10612b0957610100808354040283529160200191612b34565b820191906000526020600020905b815481529060010190602001808311612b1757829003601f168201915b50505050508152602001600282018054612b4d906149a7565b80601f0160208091040260200160405190810160405280929190818152602001828054612b79906149a7565b8015612bc65780601f10612b9b57610100808354040283529160200191612bc6565b820191906000526020600020905b815481529060010190602001808311612ba957829003601f168201915b50505050508152602001600382018054612bdf906149a7565b80601f0160208091040260200160405190810160405280929190818152602001828054612c0b906149a7565b8015612c585780601f10612c2d57610100808354040283529160200191612c58565b820191906000526020600020905b815481529060010190602001808311612c3b57829003601f168201915b50505050508152602001600482018054612c71906149a7565b80601f0160208091040260200160405190810160405280929190818152602001828054612c9d906149a7565b8015612cea5780601f10612cbf57610100808354040283529160200191612cea565b820191906000526020600020905b815481529060010190602001808311612ccd57829003601f168201915b50505050508152602001600582018054612d03906149a7565b80601f0160208091040260200160405190810160405280929190818152602001828054612d2f906149a7565b8015612d7c5780601f10612d5157610100808354040283529160200191612d7c565b820191906000526020600020905b815481529060010190602001808311612d5f57829003601f168201915b50505050508152602001600682018054612d95906149a7565b80601f0160208091040260200160405190810160405280929190818152602001828054612dc1906149a7565b8015612e0e5780601f10612de357610100808354040283529160200191612e0e565b820191906000526020600020905b815481529060010190602001808311612df157829003601f168201915b505050505081526020016007820160009054906101000a900473ffffffffffffffffffffffffffffffffffffffff1673ffffffffffffffffffffffffffffffffffffffff1673ffffffffffffffffffffffffffffffffffffffff1681526020016007820160149054906101000a900460ff161515151581526020016008820154815260200160098201548152505081526020018481526020018381526020013373ffffffffffffffffffffffffffffffffffffffff1681526020018242612ed59190614bc5565b815260200160011515815260200142815250600185604051612ef79190614a15565b90815260200160405180910390206000820151816000019080519060200190612f21929190613b67565b506020820151816001016000820151816000019080519060200190612f47929190613b67565b506020820151816001019080519060200190612f64929190613b67565b506040820151816002019080519060200190612f81929190613b67565b506060820151816003019080519060200190612f9e929190613b67565b506080820151816004019080519060200190612fbb929190613b67565b5060a0820151816005019080519060200190612fd8929190613b67565b5060c0820151816006019080519060200190612ff5929190613b67565b5060e08201518160070160006101000a81548173ffffffffffffffffffffffffffffffffffffffff021916908373ffffffffffffffffffffffffffffffffffffffff1602179055506101008201518160070160146101000a81548160ff021916908315150217905550610120820151816008015561014082015181600901555050604082015181600b019080519060200190613092929190613bed565b50606082015181600c0190805190602001906130af929190613b67565b50608082015181600d0160006101000a81548173ffffffffffffffffffffffffffffffffffffffff021916908373ffffffffffffffffffffffffffffffffffffffff16021790555060a082015181600e015560c082015181600f0160006101000a81548160ff02191690831515021790555060e082015181601001559050505050505050565b61313e8761368f565b1561317e576040517f08c379a000000000000000000000000000000000000000000000000000000000815260040161317590614c67565b60405180910390fd5b6040518061016001604052808881526020018781526020018681526020018581526020018481526020018381526020018281526020013373ffffffffffffffffffffffffffffffffffffffff168152602001600115158152602001428152602001428152506000886040516131f39190614a15565b9081526020016040518091039020600082015181600001908051906020019061321d929190613b67565b50602082015181600101908051906020019061323a929190613b67565b506040820151816002019080519060200190613257929190613b67565b506060820151816003019080519060200190613274929190613b67565b506080820151816004019080519060200190613291929190613b67565b5060a08201518160050190805190602001906132ae929190613b67565b5060c08201518160060190805190602001906132cb929190613b67565b5060e08201518160070160006101000a81548173ffffffffffffffffffffffffffffffffffffffff021916908373ffffffffffffffffffffffffffffffffffffffff1602179055506101008201518160070160146101000a81548160ff021916908315150217905550610120820151816008015561014082015181600901559050507f6578801990c7c28ee2ab5fc67084132c1560f454d076018b5a000bda143379ca87334260405161338093929190614c87565b60405180910390a150505050505050565b60606000825114156133d8576040517f08c379a00000000000000000000000000000000000000000000000000000000081526004016133cf90614b0a565b60405180910390fd5b6133e18261368f565b613420576040517f08c379a000000000000000000000000000000000000000000000000000000000815260040161341790614b76565b60405180910390fd5b60006136486000846040516134359190614a15565b90815260200160405180910390206000016000856040516134569190614a15565b90815260200160405180910390206002016000866040516134779190614a15565b90815260200160405180910390206003016000876040516134989190614a15565b90815260200160405180910390206004016000886040516134b99190614a15565b90815260200160405180910390206005016000896040516134da9190614a15565b908152602001604051809103902060060173__Strings_______________________________6371aad10d60008c6040516135159190614a15565b908152602001604051809103902060070160009054906101000a900473ffffffffffffffffffffffffffffffffffffffff166040516020016135579190614d0d565b6040516020818303038152906040526040518263ffffffff1660e01b81526004016135829190614d7d565b600060405180830381865af415801561359f573d6000803e3d6000fd5b505050506040513d6000823e3d601f19601f820116820180604052508101906135c89190614e0f565b6135f260008c6040516135db9190614a15565b908152602001604051809103902060080154613759565b61361c60008d6040516136059190614a15565b908152602001604051809103902060090154613759565b6040516020016136349998979695949392919061527c565b6040516020818303038152906040526138ba565b90508060405160200161365b9190614a15565b604051602081830303815290604052915050919050565b600081421115613685576001905061368a565b600090505b919050565b600080825114156136d5576040517f08c379a00000000000000000000000000000000000000000000000000000000081526004016136cc90614b0a565b60405180910390fd5b816040516020016136e69190614a15565b6040516020818303038152906040528051906020012060008360405161370c9190614a15565b908152602001604051809103902060000160405160200161372d91906153c1565b604051602081830303815290604052805190602001201461374f576000613752565b60015b9050919050565b606060008214156137a1576040518060400160405280600181526020017f300000000000000000000000000000000000000000000000000000000000000081525090506138b5565b600082905060005b600082146137d35780806137bc906153d8565b915050600a826137cc9190615450565b91506137a9565b60008167ffffffffffffffff8111156137ef576137ee613cbd565b5b6040519080825280601f01601f1916602001820160405280156138215781602001600182028036833780820191505090505b5090505b600085146138ae5760018261383a9190615481565b9150600a8561384991906154b5565b60306138559190614bc5565b60f81b81838151811061386b5761386a6154e6565b5b60200101907effffffffffffffffffffffffffffffffffffffffffffffffffffffffffffff1916908160001a905350600a856138a79190615450565b9450613825565b8093505050505b919050565b606060008251905060008114156138e35760405180602001604052806000815250915050613a4d565b600060036002836138f49190614bc5565b6138fe9190615450565b600461390a9190615515565b9050600060208261391b9190614bc5565b67ffffffffffffffff81111561393457613933613cbd565b5b6040519080825280601f01601f1916602001820160405280156139665781602001600182028036833780820191505090505b5090506000604051806060016040528060408152602001615570604091399050600181016020830160005b86811015613a0a5760038101905062ffffff818a015116603f8160121c168401518060081b905060ff603f83600c1c1686015116810190508060081b905060ff603f8360061c1686015116810190508060081b905060ff603f831686015116810190508060e01b90508084526004840193505050613991565b506003860660018114613a245760028114613a3457613a3f565b613d3d60f01b6002830352613a3f565b603d60f81b60018303525b508484525050819450505050505b919050565b508054613a5e906149a7565b6000825580601f10613a705750613a8f565b601f016020900490600052602060002090810190613a8e9190613c4d565b5b50565b60405180610100016040528060608152602001613aad613af5565b81526020016060815260200160608152602001600073ffffffffffffffffffffffffffffffffffffffff16815260200160008152602001600015158152602001600081525090565b60405180610160016040528060608152602001606081526020016060815260200160608152602001606081526020016060815260200160608152602001600073ffffffffffffffffffffffffffffffffffffffff16815260200160001515815260200160008152602001600081525090565b828054613b73906149a7565b90600052602060002090601f016020900481019282613b955760008555613bdc565b82601f10613bae57805160ff1916838001178555613bdc565b82800160010185558215613bdc579182015b82811115613bdb578251825591602001919060010190613bc0565b5b509050613be99190613c4d565b5090565b828054828255906000526020600020908101928215613c3c579160200282015b82811115613c3b578251829080519060200190613c2b929190613b67565b5091602001919060010190613c0d565b5b509050613c499190613c6a565b5090565b5b80821115613c66576000816000905550600101613c4e565b5090565b5b80821115613c8a5760008181613c819190613a52565b50600101613c6b565b5090565b6000604051905090565b600080fd5b600080fd5b600080fd5b600080fd5b6000601f19601f8301169050919050565b7f4e487b7100000000000000000000000000000000000000000000000000000000600052604160045260246000fd5b613cf582613cac565b810181811067ffffffffffffffff82111715613d1457613d13613cbd565b5b80604052505050565b6000613d27613c8e565b9050613d338282613cec565b919050565b600067ffffffffffffffff821115613d5357613d52613cbd565b5b613d5c82613cac565b9050602081019050919050565b82818337600083830152505050565b6000613d8b613d8684613d38565b613d1d565b905082815260208101848484011115613da757613da6613ca7565b5b613db2848285613d69565b509392505050565b600082601f830112613dcf57613dce613ca2565b5b8135613ddf848260208601613d78565b91505092915050565b600060208284031215613dfe57613dfd613c98565b5b600082013567ffffffffffffffff811115613e1c57613e1b613c9d565b5b613e2884828501613dba565b91505092915050565b600081519050919050565b600082825260208201905092915050565b60005b83811015613e6b578082015181840152602081019050613e50565b83811115613e7a576000848401525b50505050565b6000613e8b82613e31565b613e958185613e3c565b9350613ea5818560208601613e4d565b613eae81613cac565b840191505092915050565b600073ffffffffffffffffffffffffffffffffffffffff82169050919050565b6000613ee482613eb9565b9050919050565b613ef481613ed9565b82525050565b60008115159050919050565b613f0f81613efa565b82525050565b6000819050919050565b613f2881613f15565b82525050565b6000610160830160008301518482036000860152613f4c8282613e80565b91505060208301518482036020860152613f668282613e80565b91505060408301518482036040860152613f808282613e80565b91505060608301518482036060860152613f9a8282613e80565b91505060808301518482036080860152613fb48282613e80565b91505060a083015184820360a0860152613fce8282613e80565b91505060c083015184820360c0860152613fe88282613e80565b91505060e0830151613ffd60e0860182613eeb565b50610100830151614012610100860182613f06565b50610120830151614027610120860182613f1f565b5061014083015161403c610140860182613f1f565b508091505092915050565b600081519050919050565b600082825260208201905092915050565b6000819050602082019050919050565b600061407f8383613e80565b905092915050565b6000602082019050919050565b600061409f82614047565b6140a98185614052565b9350836020820285016140bb85614063565b8060005b858110156140f757848403895281516140d88582614073565b94506140e383614087565b925060208a019950506001810190506140bf565b50829750879550505050505092915050565b60006101008301600083015184820360008601526141278282613e80565b915050602083015184820360208601526141418282613f2e565b9150506040830151848203604086015261415b8282614094565b915050606083015184820360608601526141758282613e80565b915050608083015161418a6080860182613eeb565b5060a083015161419d60a0860182613f1f565b5060c08301516141b060c0860182613f06565b5060e08301516141c360e0860182613f1f565b508091505092915050565b600082825260208201905092915050565b60006141ea82613e31565b6141f481856141ce565b9350614204818560208601613e4d565b61420d81613cac565b840191505092915050565b61422181613f15565b82525050565b60006101608301600083015184820360008601526142458282613e80565b9150506020830151848203602086015261425f8282613e80565b915050604083015184820360408601526142798282613e80565b915050606083015184820360608601526142938282613e80565b915050608083015184820360808601526142ad8282613e80565b91505060a083015184820360a08601526142c78282613e80565b91505060c083015184820360c08601526142e18282613e80565b91505060e08301516142f660e0860182613eeb565b5061010083015161430b610100860182613f06565b50610120830151614320610120860182613f1f565b50610140830151614335610140860182613f1f565b508091505092915050565b61434981613ed9565b82525050565b61435881613efa565b82525050565b6000610120820190508181036000830152614379818c614109565b9050818103602083015261438d818b6141df565b905061439c604083018a614218565b81810360608301526143ae81896141df565b90506143bd6080830188614218565b81810360a08301526143cf8187614227565b90506143de60c0830186614340565b6143eb60e083018561434f565b6143f9610100830184614218565b9a9950505050505050505050565b6000610160820190508181036000830152614422818e6141df565b90508181036020830152614436818d6141df565b9050818103604083015261444a818c6141df565b9050818103606083015261445e818b6141df565b90508181036080830152614472818a6141df565b905081810360a083015261448681896141df565b905081810360c083015261449a81886141df565b90506144a960e0830187614340565b6144b761010083018661434f565b6144c5610120830185614218565b6144d3610140830184614218565b9c9b505050505050505050505050565b600060e08201905081810360008301526144fd818a6141df565b905081810360208301526145118189614227565b9050818103604083015261452581886141df565b90506145346060830187614340565b6145416080830186614218565b61454e60a083018561434f565b61455b60c0830184614218565b98975050505050505050565b600060208201905081810360008301526145818184614109565b905092915050565b600060208201905081810360008301526145a38184614227565b905092915050565b600067ffffffffffffffff8211156145c6576145c5613cbd565b5b602082029050602081019050919050565b600080fd5b60006145ef6145ea846145ab565b613d1d565b90508083825260208201905060208402830185811115614612576146116145d7565b5b835b8181101561465957803567ffffffffffffffff81111561463757614636613ca2565b5b8086016146448982613dba565b85526020850194505050602081019050614614565b5050509392505050565b600082601f83011261467857614677613ca2565b5b81356146888482602086016145dc565b91505092915050565b61469a81613f15565b81146146a557600080fd5b50565b6000813590506146b781614691565b92915050565b600080600080600060a086880312156146d9576146d8613c98565b5b600086013567ffffffffffffffff8111156146f7576146f6613c9d565b5b61470388828901613dba565b955050602086013567ffffffffffffffff81111561472457614723613c9d565b5b61473088828901613dba565b945050604086013567ffffffffffffffff81111561475157614750613c9d565b5b61475d88828901614663565b935050606086013567ffffffffffffffff81111561477e5761477d613c9d565b5b61478a88828901613dba565b925050608061479b888289016146a8565b9150509295509295909350565b600080600080600080600060e0888a0312156147c7576147c6613c98565b5b600088013567ffffffffffffffff8111156147e5576147e4613c9d565b5b6147f18a828b01613dba565b975050602088013567ffffffffffffffff81111561481257614811613c9d565b5b61481e8a828b01613dba565b965050604088013567ffffffffffffffff81111561483f5761483e613c9d565b5b61484b8a828b01613dba565b955050606088013567ffffffffffffffff81111561486c5761486b613c9d565b5b6148788a828b01613dba565b945050608088013567ffffffffffffffff81111561489957614898613c9d565b5b6148a58a828b01613dba565b93505060a088013567ffffffffffffffff8111156148c6576148c5613c9d565b5b6148d28a828b01613dba565b92505060c088013567ffffffffffffffff8111156148f3576148f2613c9d565b5b6148ff8a828b01613dba565b91505092959891949750929550565b6000602082019050818103600083015261492881846141df565b905092915050565b60006020828403121561494657614945613c98565b5b6000614954848285016146a8565b91505092915050565b6000602082019050614972600083018461434f565b92915050565b7f4e487b7100000000000000000000000000000000000000000000000000000000600052602260045260246000fd5b600060028204905060018216806149bf57607f821691505b602082108114156149d3576149d2614978565b5b50919050565b600081905092915050565b60006149ef82613e31565b6149f981856149d9565b9350614a09818560208601613e4d565b80840191505092915050565b6000614a2182846149e4565b915081905092915050565b7f596f7520617265206e6f7420617574686f72697a656420746f2061636365737360008201527f207468697320636c69656e742e00000000000000000000000000000000000000602082015250565b6000614a88602d836141ce565b9150614a9382614a2c565b604082019050919050565b60006020820190508181036000830152614ab781614a7b565b9050919050565b7f436c69656e7420696420697320656d7074792021000000000000000000000000600082015250565b6000614af46014836141ce565b9150614aff82614abe565b602082019050919050565b60006020820190508181036000830152614b2381614ae7565b9050919050565b7f496e76616c696420636c69656e74206964202100000000000000000000000000600082015250565b6000614b606013836141ce565b9150614b6b82614b2a565b602082019050919050565b60006020820190508181036000830152614b8f81614b53565b9050919050565b7f4e487b7100000000000000000000000000000000000000000000000000000000600052601160045260246000fd5b6000614bd082613f15565b9150614bdb83613f15565b9250827fffffffffffffffffffffffffffffffffffffffffffffffffffffffffffffffff03821115614c1057614c0f614b96565b5b828201905092915050565b7f436c69656e7420616c7265616479206578697374732100000000000000000000600082015250565b6000614c516016836141ce565b9150614c5c82614c1b565b602082019050919050565b60006020820190508181036000830152614c8081614c44565b9050919050565b60006060820190508181036000830152614ca181866141df565b9050614cb06020830185614340565b614cbd6040830184614218565b949350505050565b60008160601b9050919050565b6000614cdd82614cc5565b9050919050565b6000614cef82614cd2565b9050919050565b614d07614d0282613ed9565b614ce4565b82525050565b6000614d198284614cf6565b60148201915081905092915050565b600081519050919050565b600082825260208201905092915050565b6000614d4f82614d28565b614d598185614d33565b9350614d69818560208601613e4d565b614d7281613cac565b840191505092915050565b60006020820190508181036000830152614d978184614d44565b905092915050565b6000614db2614dad84613d38565b613d1d565b905082815260208101848484011115614dce57614dcd613ca7565b5b614dd9848285613e4d565b509392505050565b600082601f830112614df657614df5613ca2565b5b8151614e06848260208601614d9f565b91505092915050565b600060208284031215614e2557614e24613c98565b5b600082015167ffffffffffffffff811115614e4357614e42613c9d565b5b614e4f84828501614de1565b91505092915050565b7f7b22636c69656e745f6964223a20220000000000000000000000000000000000600082015250565b6000614e8e600f836149d9565b9150614e9982614e58565b600f82019050919050565b60008190508160005260206000209050919050565b60008154614ec6816149a7565b614ed081866149d9565b94506001821660008114614eeb5760018114614efc57614f2f565b60ff19831686528186019350614f2f565b614f0585614ea4565b60005b83811015614f2757815481890152600182019150602081019050614f08565b838801955050505b50505092915050565b7f222c000000000000000000000000000000000000000000000000000000000000600082015250565b6000614f6e6002836149d9565b9150614f7982614f38565b600282019050919050565b7f22636c69656e745f6e616d65223a202200000000000000000000000000000000600082015250565b6000614fba6010836149d9565b9150614fc582614f84565b601082019050919050565b7f22636c69656e745f6c6f676f223a202200000000000000000000000000000000600082015250565b60006150066010836149d9565b915061501182614fd0565b601082019050919050565b7f22636c69656e745f6465736372697074696f6e223a2022000000000000000000600082015250565b60006150526017836149d9565b915061505d8261501c565b601782019050919050565b7f22636c69656e745f686f6d6570616765223a2022000000000000000000000000600082015250565b600061509e6014836149d9565b91506150a982615068565b601482019050919050565b7f2272656469726563745f757269223a2022000000000000000000000000000000600082015250565b60006150ea6011836149d9565b91506150f5826150b4565b601182019050919050565b7f22636c69656e745f6f776e6572223a2022000000000000000000000000000000600082015250565b60006151366011836149d9565b915061514182615100565b601182019050919050565b7f227570646174655f64617465223a200000000000000000000000000000000000600082015250565b6000615182600f836149d9565b915061518d8261514c565b600f82019050919050565b7f2c00000000000000000000000000000000000000000000000000000000000000600082015250565b60006151ce6001836149d9565b91506151d982615198565b600182019050919050565b7f226372656174655f64617465223a200000000000000000000000000000000000600082015250565b600061521a600f836149d9565b9150615225826151e4565b600f82019050919050565b7f7d00000000000000000000000000000000000000000000000000000000000000600082015250565b60006152666001836149d9565b915061527182615230565b600182019050919050565b600061528782614e81565b9150615293828c614eb9565b915061529e82614f61565b91506152a982614fad565b91506152b5828b614eb9565b91506152c082614f61565b91506152cb82614ff9565b91506152d7828a614eb9565b91506152e282614f61565b91506152ed82615045565b91506152f98289614eb9565b915061530482614f61565b915061530f82615091565b915061531b8288614eb9565b915061532682614f61565b9150615331826150dd565b915061533d8287614eb9565b915061534882614f61565b915061535382615129565b915061535f82866149e4565b915061536a82614f61565b915061537582615175565b915061538182856149e4565b915061538c826151c1565b91506153978261520d565b91506153a382846149e4565b91506153ae82615259565b91508190509a9950505050505050505050565b60006153cd8284614eb9565b915081905092915050565b60006153e382613f15565b91507fffffffffffffffffffffffffffffffffffffffffffffffffffffffffffffffff82141561541657615415614b96565b5b600182019050919050565b7f4e487b7100000000000000000000000000000000000000000000000000000000600052601260045260246000fd5b600061545b82613f15565b915061546683613f15565b92508261547657615475615421565b5b828204905092915050565b600061548c82613f15565b915061549783613f15565b9250828210156154aa576154a9614b96565b5b828203905092915050565b60006154c082613f15565b91506154cb83613f15565b9250826154db576154da615421565b5b828206905092915050565b7f4e487b7100000000000000000000000000000000000000000000000000000000600052603260045260246000fd5b600061552082613f15565b915061552b83613f15565b9250817fffffffffffffffffffffffffffffffffffffffffffffffffffffffffffffffff048311821515161561556457615563614b96565b5b82820290509291505056fe4142434445464748494a4b4c4d4e4f505152535455565758595a6162636465666768696a6b6c6d6e6f707172737475767778797a303132333435363738392b2fa2646970667358221220bca8d9edf2b703b5886371229a1c883d6c9029672c93fec54072435995218bef64736f6c634300080b0033",
  "immutableReferences": {},
  "source": "// SPDX-License-Identifier: MIT\npragma solidity ^0.8.11;\n\n// We need to import the helper functions from the contract that we copy/pasted.\nimport {Base64} from \"./libraries/Base64.sol\";\nimport {Strings} from \"./libraries/Strings.sol\";\n\ncontract IAM {\n    modifier clientOwner(string memory _client_id) {\n        require(\n            clients[_client_id].client_owner == msg.sender,\n            \"You are not authorized to access this client.\"\n        );\n        _;\n    }\n\n    struct Clients {\n        string client_id; //clientid lowercase clientname\n        string client_secret;\n        string client_name; // unique\n        string client_logo; // svg , png , jpeg encode Base64 to string\n        string client_description;\n        string client_homepage;\n        string redirect_uri;\n        address client_owner;\n        bool is_active;\n        uint256 update_date;\n        uint256 create_date;\n    }\n\n    event AddClient(\n        string _client_id,\n        address _client_owner,\n        uint256 _create_date\n    );\n\n    event EditClient(\n        string _client_id,\n        address _client_owner,\n        uint256 _update_date\n    );\n\n    event DelClient(\n        string _client_id,\n        address _client_owner,\n        uint256 _del_date\n    );\n\n    event grantAuthorize(\n        string _client_id,\n        address _client_user,\n        uint256 _create_date\n    );\n\n    struct Authorizations {\n        string authorization_code;\n        Clients client;\n        string[] scopes;\n        string redirect_uri;\n        address client_user;\n        uint256 expires_at;\n        bool is_active;\n        uint256 create_date;\n    }\n\n    struct Tokens {\n        Authorizations authorization;\n        string access_token;\n        uint256 access_token_expires_at;\n        string refresh_token;\n        uint256 refresh_token_expires_at;\n        Clients client;\n        address client_user;\n        bool is_active;\n        uint256 create_date;\n    }\n\n    mapping(string => Clients) public clients;\n    mapping(string => Authorizations) public authorizations;\n    mapping(string => Tokens) public tokens;\n\n    function createAuthorize(\n        string memory _client_id,\n        string memory _authorization_code,\n        string[] memory _scopes,\n        string memory _redirect_uri,\n        uint256 _expiration_period // unit seconds\n    ) public {\n        require(isClient(_client_id), \"Invalid client id !\");\n        authorizations[_authorization_code] = Authorizations({\n            authorization_code: _authorization_code,\n            client: clients[_client_id],\n            scopes: _scopes,\n            redirect_uri: _redirect_uri,\n            client_user: msg.sender,\n            expires_at: block.timestamp + _expiration_period, // create expire time\n            is_active: true,\n            create_date: block.timestamp\n        });\n    }\n\n    function getGrantAuthorize(string memory _authorization_code)\n        public\n        view\n        returns (Authorizations memory)\n    {\n        return authorizations[_authorization_code];\n    }\n\n    function createClient(\n        string memory _client_id,\n        string memory _client_secret,\n        string memory _client_name,\n        string memory _client_logo,\n        string memory _client_description,\n        string memory _client_homepage,\n        string memory _redirect_uri\n    ) public {\n        require(!isClient(_client_id), \"Client already exists!\");\n        clients[_client_id] = Clients({\n            client_id: _client_id,\n            client_name: _client_name,\n            client_secret: _client_secret,\n            client_logo: _client_logo,\n            client_description: _client_description,\n            client_homepage: _client_homepage,\n            redirect_uri: _redirect_uri,\n            client_owner: msg.sender,\n            is_active: true,\n            update_date: block.timestamp,\n            create_date: block.timestamp\n        });\n        emit AddClient(_client_id, msg.sender, block.timestamp);\n    }\n\n    function deleteClient(string memory _client_id)\n        public\n        clientOwner(_client_id)\n    {\n        require(bytes(_client_id).length != 0, \"Client id is empty !\");\n        require(isClient(_client_id), \"Invalid client id !\");\n\n        delete clients[_client_id];\n    }\n\n    function isClient(string memory _client_id) private view returns (bool) {\n        require(bytes(_client_id).length != 0, \"Client id is empty !\");\n        return\n            keccak256(abi.encodePacked(clients[_client_id].client_id)) ==\n                keccak256(abi.encodePacked(_client_id))\n                ? true\n                : false;\n    }\n\n    function getClientByOwner(string memory _client_id)\n        public\n        view\n        clientOwner(_client_id)\n        returns (Clients memory)\n    {\n        require(bytes(_client_id).length != 0, \"Client id is empty !\");\n        require(isClient(_client_id), \"Invalid client id !\");\n        return clients[_client_id];\n    }\n\n    function getClientPublicJson(string memory _client_id)\n        public\n        view\n        returns (string memory)\n    {\n        require(bytes(_client_id).length != 0, \"Client id is empty !\");\n        require(isClient(_client_id), \"Invalid client id !\");\n        string memory client = Base64.encode(\n            bytes(\n                string(\n                    abi.encodePacked(\n                        '{\"client_id\": \"',\n                        clients[_client_id].client_id,\n                        '\",',\n                        '\"client_name\": \"',\n                        clients[_client_id].client_name,\n                        '\",',\n                        '\"client_logo\": \"',\n                        clients[_client_id].client_logo,\n                        '\",',\n                        '\"client_description\": \"',\n                        clients[_client_id].client_description,\n                        '\",',\n                        '\"client_homepage\": \"',\n                        clients[_client_id].client_homepage,\n                        '\",',\n                        '\"redirect_uri\": \"',\n                        clients[_client_id].redirect_uri,\n                        '\",',\n                        '\"client_owner\": \"',\n                        Strings.toString(\n                            abi.encodePacked(clients[_client_id].client_owner)\n                        ),\n                        '\",',\n                        '\"update_date\": ',\n                        Strings.uint256ToString(\n                            clients[_client_id].update_date\n                        ),\n                        \",\",\n                        '\"create_date\": ',\n                        Strings.uint256ToString(\n                            clients[_client_id].create_date\n                        ),\n                        \"}\"\n                    )\n                )\n            )\n        );\n        return string(abi.encodePacked(client));\n    }\n\n    function isExpire(uint256 _expires_at) public view returns (bool) {\n        if (block.timestamp > _expires_at) {\n            return true;\n        }\n        return false;\n    }\n}\n",
  "sourcePath": "/Users/kritsanawipankhet/Development/Github/iamblockchain-smartcontract/contracts/IAM.sol",
  "compiler": {
    "name": "solc",
    "version": "0.8.11+commit.d7f03943.Emscripten.clang"
  },
  "schemaVersion": "3.4.6",
  "updatedAt": "2022-04-11T20:15:46.976Z",
  "devdoc": {
    "kind": "dev",
    "methods": {},
    "version": 1
  },
  "userdoc": {
    "kind": "user",
    "methods": {},
    "version": 1
  }
}